:100000000C945C000C9479000C9479000C947900A9
:100010000C9479000C9479000C9479000C9479007C
:100020000C9479000C9479000C9479000C9479006C
:100030000C9479000C9479000C9479000C9479005C
:100040000C94BA000C9479000C9479000C9479000B
:100050000C9479000C9479000C9479000C9479003C
:100060000C9479000C947900000000080002010053
:100070000003040700000000000000000102040863
:100080001020408001020408102001020408102002
:10009000040404040404040402020202020203032E
:1000A0000303030300000000250028002B000000CC
:1000B0000000240027002A0011241FBECFEFD8E043
:1000C000DEBFCDBF21E0A6E0B1E001C01D92A531A9
:1000D000B207E1F711E0A0E0B1E0ECEEF5E002C01C
:1000E00005900D92A630B107D9F70E94AB000C9491
:1000F000F4020C94000060E00C94A40161E00C9404
:10010000A4010F931F93CF93DF93182F092F86E03D
:1001100090E00E94D301EC01188309838EE790E000
:100120009B838A838BE790E09D838C8361E0812FA2
:100130000E946801CE01DF91CF911F910F91089528
:1001400085E090E00E9481009093100180930F0160
:100150000895089508950E9404010E94AA000E9433
:10016000A000C0E0D0E00E94A9002097E1F30E9427
:100170000000F9CF1F920F920FB60F9211242F9308
:100180003F938F939F93AF93BF938091070190917B
:100190000801A0910901B0910A013091060123E004
:1001A000230F2D3720F40196A11DB11D05C026E8AF
:1001B000230F0296A11DB11D209306018093070114
:1001C00090930801A0930901B0930A0180910B015B
:1001D00090910C01A0910D01B0910E010196A11D0D
:1001E000B11D80930B0190930C01A0930D01B0936E
:1001F0000E01BF91AF919F918F913F912F910F90E1
:100200000FBE0F901F901895789484B5826084BDBE
:1002100084B5816084BD85B5826085BD85B581600A
:1002200085BDEEE6F0E0808181608083E1E8F0E06A
:100230001082808182608083808181608083E0E899
:10024000F0E0808181608083E1EBF0E08081846078
:100250008083E0EBF0E0808181608083EAE7F0E07A
:1002600080818460808380818260808380818160DE
:1002700080838081806880831092C10008958330DC
:1002800081F028F4813099F08230A1F00895873010
:10029000A9F08830B9F08430D1F4809180008F7D4E
:1002A00003C0809180008F7780938000089584B58B
:1002B0008F7702C084B58F7D84BD08958091B00092
:1002C0008F7703C08091B0008F7D8093B000089538
:1002D000CF93DF9390E0FC01E458FF4F2491FC01A1
:1002E000E057FF4F8491882361F190E0880F991FB8
:1002F000FC01E255FF4FC591D491FC01EC55FF4F35
:10030000A591B491611109C09FB7F8948881209597
:1003100082238883EC912E230BC0623061F49FB757
:10032000F8948881322F309583238883EC912E2B8B
:100330002C939FBF06C08FB7F894E8812E2B28839B
:100340008FBFDF91CF9108951F93CF93DF93282F15
:1003500030E0F901E859FF4F8491F901E458FF4F6B
:10036000D491F901E057FF4FC491CC23C1F0162F6F
:1003700081110E943F01EC2FF0E0EE0FFF1FEC55C2
:10038000FF4FA591B4919FB7F894111104C08C91BF
:10039000D095D82302C0EC91DE2BDC939FBFDF9178
:1003A000CF911F9108950F931F93CF93DF938230C6
:1003B000910510F482E090E0E0911301F0911401B6
:1003C00020E030E0A0E0B0E0309719F140815181A9
:1003D0000281138148175907C8F08417950769F4FB
:1003E000109731F012960C93129713961C9327C016
:1003F000009313011093140122C02115310519F047
:100400004217530718F49A01BD01EF01DF01F8010B
:10041000DBCF21153105F9F0281B390B24303105CC
:1004200080F48A819B816115710521F0FB01938322
:10043000828304C09093140180931301FE013296CD
:1004400044C0FE01E20FF31F8193919322503109C2
:10045000398328833AC02091110130911201232B56
:1004600041F4209102013091030130931201209355
:10047000110120910001309101012115310541F454
:100480002DB73EB74091040150910501241B350B57
:10049000E0911101F0911201E217F307A0F42E1B75
:1004A0003F0B2817390778F0AC014E5F5F4F2417D8
:1004B000350748F04E0F5F1F509312014093110112
:1004C0008193919302C0E0E0F0E0CF01DF91CF9102
:1004D0001F910F910895CF93DF93009709F481C086
:1004E000FC01329713821282A0911301B091140182
:1004F000109781F420813181820F931F2091110187
:10050000309112012817390751F5F0931201E09349
:10051000110167C0ED0120E030E0CE17DF0740F4A5
:100520004A815B819E0141155105F1F0EA01F5CF49
:10053000D383C28340815181840F951FC817D90787
:1005400059F488819981840F951F02969183808345
:100550008A819B81938382832115310529F4F0934D
:100560001401E09313013DC0E901FB83EA83499143
:100570005991C40FD51FEC17FD0761F4808191815B
:10058000840F951F0296E901998388838281938164
:100590009B838A83E0E0F0E012968D919C91139703
:1005A000009719F0FD01DC01F7CF8D919C91119717
:1005B0009D012E5F3F4F820F931F209111013091BB
:1005C00012012817390769F4309729F410921401A1
:1005D0001092130102C013821282B0931201A093F1
:0C05E0001101DF91CF910895F894FFCF36
:0605EC00000015012000D3
:00000001FF
