S0110000416C69656E43616B652E73726563B6
S11300000C947A000C94A2000C94A2000C9436096F
S11300100C9436090C9436090C94A2000C94A2009A
S11300200C94A2000C94A2000C94A2000C94A200C4
S11300300C94A2000C94A2000C94A2000C94A200B4
S11300400C949B060C94A2000C94D5040C94070504
S11300500C94A2000C94A2000C94A2000C94A20094
S11300600C94A2000C94A20033023A024802270224
S113007048022C0241025A0248024802480248023D
S113008048024802480248024C0248024802480218
S113009048024802000000080002010000030407AF
S11300A0000000000000000001020408102040804D
S11300B001020408102001020408102004040404AE
S11300C004040404020202020202030303030303FE
S11300D00000000023002600290000000000250085
S11300E028002B0000000000240027002A00F7004D
S11300F03705050111241FBECFEFD8E0DEBFCDBF09
S113010011E0A0E0B1E0E6EEF8E102C005900D9246
S1130110A63DB107D9F722E0A6EDB1E001C01D92DA
S1130120AC3CB207E1F710E0C9E7D0E004C0219786
S1130130FE010E94110BC737D107C9F70E9465055C
S11301400C94660C0C940000CF93DF9326E040E8F7
S113015055E260E070E08EED91E00E94700460E191
S113016071E08EED91E00E94C0058CE290E00E9467
S11301707405EC014BE050E06AE070E00E948801F5
S1130180D093D701C093D6018CED91E0DF91CF914C
S11301900C941601CF93DF9360E371E08EED91E050
S11301A00E94C00588ED91E00E943D01EC014AE007
S11301B050E0BC018EED91E00E9489062197E19701
S11301C080F48CED91E00E9411018091D601909110
S11301D0D7010E94F10160ED77E080E090E00E9499
S11301E016078CED91E0DF91CF910C94160164E039
S11301F070E08CED91E00E94090146E050E067E078
S113020070E088ED91E00C941B018CED91E00C946E
S11302101001FC01862F6083718361E00C94C10797
S1130220089561E0FC0180810C94FD0760E0FC010D
S113023080810C94FD07CF93DF93EC01862F6883B4
S113024079835B834A8360E00E94C10761E08A810D
S1130250DF91CF910C94C107CF93DF93EC0161E060
S11302608A810E94FD078AE090E00E94520760E0C4
S11302708A81DF91CF910C94FD07CF92DF92EF92A8
S1130280FF92CF93DF93EC010E942C0188810E949E
S11302902C08019729F081E090E00E945207F6CFE4
S11302A00E94F1066B017C0188810E942C08892B35
S11302B029F081E090E00E945207F6CF0E94F106F7
S11302C09B01AC012C193D094E095F0969017A01B2
S11302D02AE030E0B701A6018EED91E00E942806E5
S11302E0A2E2B0E0A70196010E94170B20ED37E0CF
S11302F040E050E00E94D00AC901DF91CF91FF9005
S1130300EF90DF90CF9008956EE106960C94510320
S1130310EF92FF920F931F93CF93DF93EC018C0125
S11303200A5F1F4F84EF91E0A0E0B0E08C879D87C7
S1130330AE87BF878AE0E6E0F1E0DE015A960190DD
S11303400D928A95E1F71CA282E08DA31AA61BA642
S1130350798368835B834A838FE190E00E9474050C
S11303607C0120E04A8168810E94020AFD82EC82BD
S113037040E855E260E070E0C7010E942D0A6C81FC
S11303807D8141E0C8010E946903811113C065E4C5
S113039071E08EED91E00E94C00566E571E08EED9E
S11303A091E00E94C00568E771E08EED91E00E9443
S11303B0C005FFCF62E971E08EED91E00E94C005B7
S11303C060E0C8010E94560362E0C8010E945B031A
S11303D0CE01DF91CF911F910F91FF90EF900C947C
S11303E0840162E070E006960C94A603FB0131964A
S11303F0695F7F4F80E090E02191820F911DE617A5
S1130400F707D1F79195819591090895DC011D961F
S1130410EC911D979196EC9391971F968C911F9751
S113042090E0982F882750962C915097820F911D19
S113043093969C938E9392974E2F50E0FA01FA97DD
S1130440E631F10548F5EC5CFF4F0C94110B5E9618
S11304501C925E9785E019C081FF2EC05E961C92A7
S11304605E9784E012C081FF27C05E961C925E975F
S113047082E00BC081FF20C05E961C925E9783E0F1
S113048004C05E961C925E9786E090968C9390973B
S113049081E094968C9308955E961C925E9781E019
S11304A090968C93909793961C921E929297949602
S11304B08C93949795961C920895CF93DF93EC01B7
S11304C0BC01665F7F4F0E94F601298930E0322F1C
S11304D022274A89240F311D41E02817390709F0E2
S11304E040E0842FDF91CF910895CF92DF92EF9275
S11304F0FF920F931F93CF93DF93EC01888199812F
S1130500DC01ED91FC910480F581E02D0995892BA6
S113051009F444C00E8D88819981DC01ED91FC9130
S11305200680F781E02D011107C009958A878E376F
S113053029F71CA28E8D2FC00995FE01E00FF11D35
S113054082878E8D823049F0893059F0813019F5D7
S11305509B859F3F01F11E8E1AC09C859630D9F071
S113056003C08B898F3E11F01E8E10C0CE010E94F5
S11305705D021E8E882351F0CE010E9406021CA14A
S1130580112369F1888D81112AC026C081E088A3D6
S11305901BA21AA220C08F5F8E8FB0CF8DA188239B
S11305A0E9F00E94E506CA80DB80EC80FD80DC0176
S11305B0CB018C199D09AE09BF09CE80DF80E88488
S11305C0F9848C159D05AE05BF0540F01E8E18A25A
S11305D01BA21AA281E08CA31DA201C01CA1812F21
S11305E0DF91CF911F910F91FF90EF90DF90CF900B
S11305F00895CF93DF93EC01888D882339F08DA182
S1130600882351F0CE010E947502F9CF6AE070E0B0
S113061080E090E00E94160788819981DC01ED91C9
S1130620FC910280F381E02D4AE050E0BE016C5E53
S11306307F4F09950E94E5066A837B838C839D83A3
S113064081E0988D911101C080E08DA3DF91CF915D
S11306500895CF93DF93EC016F8B598F4A8FBC01C0
S11306606C5E7F4F0E94F6019B8F8C8FCE01DF91D1
S1130670CF910C94F90240E050E00C942903CF93FD
S1130680DF93EC0181E08DA3CE010E9475028823E3
S1130690D9F381E098A1911101C080E0DF91CF915D
S11306A00895462F50E066E00C942903462F50E04D
S11306B067E00C942903462F50E069E00E94290367
S11306C068EC70E080E090E00C9416076CE00C9409
S11306D03B031F93CF93DF93EC01142F442319F0B2
S11306E081E0888F01C0188E798368838E819F8111
S11306F0A885B9858854944FAF4FBF4F8E839F838D
S1130700A887B987CE010E946603CE010E943F03E9
S11307108E819F81A885B985885B9B40A109B10919
S11307208E839F83A887B98768EC70E080E090E0AF
S11307300E9416071CA288A1843019F081E0812749
S113074001C081E0DF91CF911F910895AB0162E177
S11307500C942903FC01918D228D892F90E0805CFB
S11307609F4F821B91098F7399270895FC01918DE6
S1130770828D981731F0828DE80FF11D858D90E000
S113078008958FEF9FEF0895FC01918D828D981746
S113079061F0828DDF01A80FB11D5D968C91928D61
S11307A09F5F9F73928F90E008958FEF9FEF08955E
S11307B08DE295E0892B49F080E090E0892B29F0C7
S11307C00E942D0581110C9400000895FC01848D74
S11307D0DF01A80FB11DA35ABF4F2C91848D90E067
S11307E001968F739927848FA689B7892C93A08942
S11307F0B1898C9180648C93938D848D981306C0F9
S11308000288F389E02D80818F7D80830895EF92A3
S1130810FF920F931F93CF93DF93EC0181E0888FB6
S11308209B8D8C8D981305C0E889F989808185FD9D
S113083024C0F62E0B8D10E00F5F1F4F0F7311278E
S1130840E02E8C8DE8120CC00FB607FCFACFE889B5
S1130850F989808185FFF5CFCE010E94E603F1CFAF
S11308608B8DFE01E80FF11DE35AFF4FF0820B8FD1
S1130870EA89FB898081806207C0EE89FF896083F1
S1130880E889F98980818064808381E090E0DF9148
S1130890CF911F910F91FF90EF900895CF93DF9325
S11308A0EC01888D8823C9F0EA89FB89808185FD64
S11308B005C0A889B9898C9186FD0FC00FB607FCC5
S11308C0F5CF808185FFF2CFA889B9898C9185FF06
S11308D0EDCFCE010E94E603E7CFDF91CF910895DB
S11308E0CF92DF92EF92FF921F93CF93DF93EC01AD
S11308F06A017B01122FE889F98982E0808341151E
S1130900514E61057105B1F060E079E08DE390E04E
S1130910A70196010E94D00ADA01C9010197A10931
S1130920B109B695A795979587959C01211580E106
S11309303807A8F0E889F989108260E874E88EE144
S113094090E0A70196010E94D00ADA01C90101973B
S1130950A109B109B695A795979587959C01EC8552
S1130960FD853083EE85FF852083188EEC89FD8913
S11309701083EA89FB89808180618083EA89FB890D
S1130980808188608083EA89FB8980818068808394
S1130990EA89FB8980818F7D8083DF91CF911F91CC
S11309A0FF90EF90DF90CF9008951F920F920FB6B3
S11309B00F9211242F938F939F93EF93FF93E091C2
S11309C0EE01F091EF018081E091F401F091F501E5
S11309D082FD12C090818091F7018F5F8F73209107
S11309E0F801821751F0E091F701F0E0E252FE4F76
S11309F0958F8093F70101C08081FF91EF919F91C2
S1130A008F912F910F900FBE0F901F9018951F92EA
S1130A100F920FB60F9211242F933F934F935F932E
S1130A206F937F938F939F93AF93BF93EF93FF93B2
S1130A308EED91E00E94E603FF91EF91BF91AF919B
S1130A409F918F917F916F915F914F913F912F91E2
S1130A500F900FBE0F901F9018958EED91E00E949D
S1130A60AA0321E0892B09F420E0822F0895EEEDFA
S1130A70F1E01382128288EE93E0A0E0B0E0848378
S1130A809583A683B7838BEA91E09183808385EC79
S1130A9090E09587848784EC90E09787868780EC44
S1130AA090E0918B808B81EC90E0938B828B82EC35
S1130AB090E0958B848B86EC90E0978B868B118EDF
S1130AC0128E138E148E089508950E945D070E945D
S1130AD064050E94A400C8EDD3E00E94CA002097D8
S1130AE0E1F30E94D803F9CF0C94450BCF92DF9227
S1130AF0EF92FF920F931F93CF93DF936C017A01D0
S1130B008B01C0E0D0E0CE15DF0581F0D8016D91F6
S1130B108D01D601ED91FC910190F081E02DC6018B
S1130B200995892B11F02196EECF7E01C701DF9143
S1130B30CF911F910F91FF90EF90DF90CF90089588
S1130B406115710579F0FB0101900020E9F73197F7
S1130B50AF01461B570BDC01ED91FC910280F38140
S1130B60E02D099480E090E00895DC01ED91FC9182
S1130B700190F081E02D099467EB71E00C94A005DD
S1130B800F931F93CF93DF93EC010E94A0058C0178
S1130B90CE010E94BC05800F911FDF91CF911F9160
S1130BA00F9108958F929F92AF92BF92EF92FF920E
S1130BB00F931F93CF93DF93CDB7DEB7A1970FB6F3
S1130BC0F894DEBF0FBECDBF7C01FA01CB0119A2A0
S1130BD0223008F42AE08E010F5D1F4F822E912CE3
S1130BE0A12CB12CBF01A50194010E94D00AF901E6
S1130BF0CA01015011096A3010F4605D01C0695CDA
S1130C00D8016C93232B242B252B61F7B801C70142
S1130C100E94A005A1960FB6F894DEBF0FBECDBF0B
S1130C20DF91CF911F910F91FF90EF90BF90AF9004
S1130C309F908F9008952115310541F4DC01ED91C9
S1130C40FC910190F081E02D642F09940C94D2055D
S1130C500F931F93CF93DF93EC010E941B068C012B
S1130C60CE010E94BC05800F911FDF91CF911F918F
S1130C700F910895CF92DF92EF92FF920F931F93FB
S1130C80CF93DF932115310581F4DC01ED91FC91C3
S1130C900190F081E02D642FDF91CF911F910F918E
S1130CA0FF90EF90DF90CF9009942A30310501F541
S1130CB077FF1DC06A017B01EC016DE20E94B5055E
S1130CC08C0144275527BA014C195D096E097F0927
S1130CD02AE0CE010E94D205800F911FDF91CF91AF
S1130CE01F910F91FF90EF90DF90CF9008952AE02D
S1130CF0DF91CF911F910F91FF90EF90DF90CF90F4
S1130D000C94D2059A01AB01770F660B770B0C9408
S1130D103A060F931F93CF93DF93EC010E94820650
S1130D208C01CE010E94BC05800F911FDF91CF91F1
S1130D301F910F9108951F920F920FB60F921124D5
S1130D402F933F938F939F93AF93BF9380917C0294
S1130D5090917D02A0917E02B0917F0230917B023E
S1130D6023E0230F2D3720F40196A11DB11D05C0EA
S1130D7026E8230F0296A11DB11D20937B028093C8
S1130D807C0290937D02A0937E02B0937F028091B7
S1130D90800290918102A0918202B0918302019617
S1130DA0A11DB11D8093800290938102A0938202C1
S1130DB0B0938302BF91AF919F918F913F912F91F7
S1130DC00F900FBE0F901F9018952FB7F894609155
S1130DD07C0270917D0280917E0290917F022FBFF0
S1130DE008953FB7F8948091800290918102A09178
S1130DF08202B091830226B5A89B05C02F3F19F04B
S1130E000196A11DB11D3FBFBA2FA92F982F882786
S1130E10820F911DA11DB11DBC01CD0142E0660FE1
S1130E20771F881F991F4A95D1F708958F929F9233
S1130E30AF92BF92CF92DF92EF92FF926B017C014F
S1130E400E94F1064B015C01C114D104E104F104D8
S1130E5001F10E94BB0A0E94F106DC01CB01881952
S1130E609909AA09BB09883E9340A105B10560F31D
S1130E7021E0C21AD108E108F10888EE880E83E067
S1130E80981EA11CB11CC114D104E104F10419F78A
S1130E90DBCFFF90EF90DF90CF90BF90AF909F900B
S1130EA08F9008958230910538F0880F991F880F2C
S1130EB0991F05970197F1F70895789484B5826096
S1130EC084BD84B5816084BD85B5826085BD85B5EA
S1130ED0816085BDEEE6F0E0808181608083E1E899
S1130EE0F0E01082808182608083808181608083D1
S1130EF0E0E8F0E0808181608083E1EBF0E08081D4
S1130F0084608083E0EBF0E0808181608083EAE7A5
S1130F10F0E080818460808380818260808380812E
S1130F20816080838081806880831092C1000895ED
S1130F30833081F028F4813099F08230A1F0089553
S1130F408730A9F08830B9F08430D1F480918000E2
S1130F508F7D03C0809180008F77809380000895F7
S1130F6084B58F7702C084B58F7D84BD0895809148
S1130F70B0008F7703C08091B0008F7D8093B00064
S1130F800895CF93DF9390E0FC01E855FF4F24913F
S1130F90FC01E454FF4F8491882361F190E0880FB1
S1130FA0991FFC01EC51FF4FC591D491FC01E6520D
S1130FB0FF4FA591B491611109C09FB7F89488813E
S1130FC0209582238883EC912E230BC0623061F438
S1130FD09FB7F8948881322F309583238883EC91CE
S1130FE02E2B2C939FBF06C08FB7F894E8812E2B2D
S1130FF028838FBFDF91CF9108951F93CF93DF9301
S1131000282F30E0F901EC56FF4F8491F901E8559F
S1131010FF4FD491F901E454FF4FC491CC23C1F0A4
S1131020162F81110E949807EC2FF0E0EE0FFF1F9E
S1131030E652FF4FA591B4919FB7F894111104C0E3
S11310408C91D095D82302C0EC91DE2BDC939FBF0A
S1131050DF91CF911F910895CF93DF93282F30E034
S1131060F901EC56FF4F8491F901E855FF4FD491F3
S1131070F901E454FF4FC491CC2391F081110E94F3
S11310809807EC2FF0E0EE0FFF1FE053FF4FA59100
S1131090B491EC91ED2381E090E021F480E002C072
S11310A080E090E0DF91CF9108952091C6023091C5
S11310B0C70228173907B9F49091840280918502F8
S11310C0981789F0E0918402F0E0EA57FD4F80819F
S11310D02091840230E02F5F3F4F2F7333272093FA
S11310E0840290E008958FEF9FEF08951F93CF93AC
S11310F0DF93DC015C968D919C915D97009739F4A8
S113110021E030E013963C932E9312973BC0519606
S1131110ED91FC91529750962C915097322F309527
S11311201FB75E964C915E97742F727041FD609567
S1131130F8944081772311F0422B01C0432340836C
S1131140EC012197F1F748E0508160FF02C0522B77
S113115001C053235083EC012197F1F76695415068
S113116099F78081772319F08323808302C0282B89
S113117020831FBF5C968D919C915D970197F1F739
S113118081E090E0DF91CF911F910895089520911F
S1131190C6023091C7022817390771F4909184026E
S11311A080918502981741F0E0918402F0E0EA57BB
S11311B0FD4F808190E008958FEF9FEF0895209177
S11311C0C6023091C7022817390771F4809185024D
S11311D02091840290E0805C9F4F821B910960E41F
S11311E070E00E94BC0A089580E090E00895E091C8
S11311F0C602F091C702E817F90769F4A389B48914
S11312009C918589809589238C931092C7021092B2
S1131210C60281E0089580E00895CF93DF93EC0146
S11312208A8D9B8D892BF1F08091C6029091C70223
S1131230C817D907B9F0009711F00E94F7088E8DEE
S11312408E7F8E8F1092850210928402D093C702F3
S1131250C093C602EB89FC8990818D89892B808398
S113126081E001C080E0DF91CF9108951F920F9239
S11312700FB60F9211242F933F934F935F936F9365
S11312807F938F939F93AF93BF93EF93FF93E091DB
S1131290C602F091C702309709F451C0968DA68515
S11312A0B785858591FF04C09C91892329F447C0A3
S11312B09C91892309F043C0A389B4899C918589B1
S11312C0809589238C93868997890197F1F7608D9E
S11312D0718DA685B785558538E020E0CB0101974F
S11312E0F1F7822F90E095958795282F4C9145230F
S11312F009F02068315091F7868D81FD2095809109
S1131300850290E001968F739927309184023817F3
S113131049F0A0918502B0E0AA57BD4F2C93809369
S1131320850203C0868D8160868F828D938D01979F
S1131330F1F7A389B4899C918589892B8C93FF91BA
S1131340EF91BF91AF919F918F917F916F915F9139
S11313504F913F912F910F900FBE0F901F901895B2
S11313601F93CF93DF93EC01162F6E8D66956170FA
S113137081E06827812F0E94FD0761E0812F0E9490
S1131380C107812F90E0FC01E855FF4FE491E88B01
S1131390FC01E454FF4FE491F0E0EE0FFF1FE6522E
S11313A0FF4F859194919A8B898BDF91CF911F91F7
S11313B008951F93CF93DF93EC01162F60E0812FE4
S11313C00E94C1078E8D81FD04C061E0812F0E94BF
S11313D0FD071C87812F90E0FC01E855FF4FE49145
S11313E0ED87FC01E454FF4FE491F0E0EE0FFF1FA2
S11313F0E053FF4F859194919F878E87DF91CF9122
S11314001F9108951F93CF93DF93EC01162F1B8236
S11314101A8288EE93E0A0E0B0E08C839D83AE83D3
S1131420BF838AEC91E0998388831F8A1E8A198E70
S1131430188E1B8E1A8E1D8E1C8E8E8D8E7F20FB19
S113144081F98E8F642FCE010E94B009612FCE01E5
S1131450DF91CF911F910C94D909CF93DF93EC01C5
S11314609A01AB011B8E1A8E198E188E1F8A1E8A42
S113147060E079E08DE390E00E94F20AF901243003
S1131480310518F0C901039702C081E090E09D8FF7
S11314908C8F6C85663108F069C0C9019695879573
S11314A08431910510F0439702C081E090E09F8B56
S11314B08E8B369718F0C901059702C081E090E041
S11314C0998F888FC901880F991F280F391F369566
S11314D02795369527952D30310518F02C50310974
S11314E002C021E030E03B8F2A8F90916800683081
S11314F050F021E06E3008F420E081E001C0880F54
S11315002A95EAF701C084E0892B809368009C85C2
S1131510983038F09E3040F0963148F020E030E0CA
S113152008C02DE630E005C02BE630E002C02CE612
S113153030E03C8B2B8B983030F481E001C0880F75
S11315409A95EAF70EC0292F30E09E3018F42850FF
S1131550310902C02E50310981E001C0880F2A955B
S1131560EAF78D8B8C8D9D8D0197F1F7CE01DF917C
S1131570CF910C940D09089597FB072E16F400944F
S113158007D077FD09D00E94220B07FC05D03EF45A
S1131590909581959F4F0895709561957F4F08951B
S11315A0A1E21A2EAA1BBB1BFD010DC0AA1FBB1F63
S11315B0EE1FFF1FA217B307E407F50720F0A21BD5
S11315C0B30BE40BF50B661F771F881F991F1A9442
S11315D069F760957095809590959B01AC01BD016C
S11315E0CF010895052E97FB1EF400940E94090B69
S11315F057FD07D00E94D00A07FC03D04EF40C9488
S1131600090B50954095309521953F4F4F4F5F4FB3
S1131610089590958095709561957F4F8F4F9F4F5A
S11316200895EE0FFF1F0590F491E02D09940E9498
S1131630360BA59F900DB49F900DA49F800D911D16
S113164011240895AA1BBB1B51E107C0AA1FBB1F8D
S1131650A617B70710F0A61BB70B881F991F5A953A
S1131660A9F780959095BC01CD010895A29FB00182
S1131670B39FC001A39F700D811D1124911DB29FC2
S1131680700D811D1124911D08950F931F93CF9305
S1131690DF938230910510F482E090E0E091CA0279
S11316A0F091CB0220E030E0A0E0B0E0309719F1F7
S11316B0408151810281138148175907C8F084176A
S11316C0950769F4109731F012960C9312971396BC
S11316D01C9327C00093CA021093CB0222C0211589
S11316E0310519F04217530718F49A01BD01EF01AF
S11316F0DF01F801DBCF21153105F9F0281B390B87
S11317002430310580F48A819B816115710521F0B3
S1131710FB019383828304C09093CB028093CA021B
S1131720FE01329644C0FE01E20FF31F81939193B0
S113173022503109398328833AC02091C80230915C
S1131740C902232B41F4209102013091030130930B
S1131750C9022093C8022091000130910101211592
S1131760310541F42DB73EB7409104015091050174
S1131770241B350BE091C802F091C902E217F3076C
S1131780A0F42E1B3F0B2817390778F0AC014E5FED
S11317905F4F2417350748F04E0F5F1F5093C9025F
S11317A04093C8028193919302C0E0E0F0E0CF013E
S11317B0DF91CF911F910F910895CF93DF930097FD
S11317C009F481C0FC01329713821282A091CA02EB
S11317D0B091CB02109781F420813181820F931F45
S11317E02091C8023091C9022817390751F5F093A6
S11317F0C902E093C80267C0ED0120E030E0CE17D3
S1131800DF0740F44A815B819E0141155105F1F0E7
S1131810EA01F5CFD383C28340815181840F951FA0
S1131820C817D90759F488819981840F951F0296A6
S1131830918380838A819B819383828321153105DF
S113184029F4F093CB02E093CA023DC0E901FB8383
S1131850EA8349915991C40FD51FEC17FD0761F430
S113186080819181840F951F0296E9019983888371
S1131870828193819B838A83E0E0F0E012968D91CC
S11318809C911397009719F0FD01DC01F7CF8D911E
S11318909C9111979D012E5F3F4F820F931F2091C2
S11318A0C8023091C9022817390769F4309729F41E
S11318B01092CB021092CA0202C013821282B09319
S11318C0C902A093C802DF91CF91089510E0C9E73F
S11318D0D0E004C0FE010E94110B2196CA37D10743
S10918E0C9F7F894FFCFE4
S11318E60000CC0220007EFF06000100000000EF8D
S11318F65374617274696E672070726F6772616D7A
S113190620666F7220416C69656E2043616B6500C9
S113191644697374616E6365206465746563746F8A
S113192672206F6E00556E61626C6520746F206262
S11319366567696E3A00312E20506C6561736520C7
S11319467265636865636B2074686520636F6E6E89
S1131956656374696F6E2100322E20506C65617365
S11319666520696E736572742053442063617264E2
S113197621004D503320706C6179657220697320A3
S11319866F6E6C696E65000000000007047605AA98
S113199603C403B6034E040D0A006E616E00696E3D
S11319A666006F7666000000000076087605DF089C
S10919B65508C708C6082D
S9030000FC
