:100000000C947A000C94A2000C94A2000C94FD0AAB
:100010000C94FD0A0C94FD0A0C94A2000C94A2000E
:100020000C94A2000C94A2000C94A2000C94A200C8
:100030000C94A2000C94A2000C94A2000C94A200B8
:100040000C9403080C94A2000C943D060C946F06CB
:100050000C94A2000C94A2000C94A2000C94A20098
:100060000C94A2000C94A20098039F03AD038C0390
:10007000AD039103A603BF03AD03AD03AD03AD0311
:10008000AD03AD03AD03AD03B103AD03AD03AD03EC
:10009000AD03AD03000000080002010000030407E7
:1000A0000000000000000000010204081020408051
:1000B00001020408102001020408102004040404B2
:1000C0000404040402020202020203030303030302
:1000D0000000000023002600290000000000250089
:1000E00028002B0000000000240027002A007A01CD
:1000F0009F06A60111241FBECFEFD8E0DEBFCDBF03
:1001000011E0A0E0B1E0E4E7FCE102C005900D924F
:10011000A43FB107D9F722E0A4EFB1E001C01D92DE
:10012000A73FB207E1F710E0C9E7D0E004C021978C
:10013000FE010E94D80CC737D107C9F70E94CD062F
:100140000C942D0E0C940000CF93DF9326E040E832
:1001500055E260E070E089E092E00E94D80560E13D
:1001600071E089E092E00E9428078EE290E00E9410
:10017000DC06EC0123E030E04BE050E06AE070E0A8
:100180000E94B502D0930202C093010268EE73E0B0
:1001900080E090E00E947E0887E092E00E94B70134
:1001A00062E08CE0DF91CF910C9488090F931F934C
:1001B000CF93DF9360E371E089E092E00E9428072B
:1001C00083E092E00E94DE01EC014AE050E0BC01D5
:1001D00089E092E00E94F107CE010197CB9708F0E9
:1001E00055C087E092E00E94B20180910102909197
:1001F00002020E943203811106C080910102909197
:1002000002020E942A03A8978CF54AEF50E060E0B2
:100210008AEF91E00E942D0268EB7BE080E090E0A5
:100220000E947E0860E08AEF91E00E943E0240E07A
:1002300060E08AEF91E00E9450024AEF50E060E0F7
:100240008AEF91E00E942D0288EF91E00E94430323
:10025000892B39F06AE070E080E090E00E947E082F
:10026000F3CF60E08AEF91E00E943E0260ED77E01C
:1002700080E090E00E947E080E944D086093F401A7
:100280007093F5018093F6019093F701809101023C
:10029000909102020E9432038823A9F00E944D0827
:1002A0000091F4011091F5012091F6013091F701D0
:1002B000DC01CB01801B910BA20BB30B893E934059
:1002C000A105B10540F487E092E0DF91CF911F9145
:1002D0000F910C94B70180910102909102020E944B
:1002E0002F031092F4011092F5011092F601109272
:1002F000F701E9CFCF93DF9364E070E087E092E00D
:100300000E94AA0146E050E067E070E083E092E0DE
:100310000E94BC0186E090E00E94DC06EC0125E032
:1003200030E048E050E069E070E00E94250240E0E3
:1003300050E0BE018AEF91E00E9493026CE070E011
:1003400088EF91E0DF91CF910C943C0387E092E03D
:100350000C94B101FC01862F6083718361E00C94E1
:100360008809089561E0FC0180810C94C40960E073
:10037000FC0180810C94C409CF93DF93EC01862F9C
:10038000688379835B834A8360E00E94880961E027
:100390008A81DF91CF910C948809CF93DF93EC0190
:1003A00061E08A810E94C4098AE090E00E94BA0854
:1003B00060E08A81DF91CF910C94C409CF92DF92E3
:1003C000EF92FF92CF93DF93EC010E94CD018881E1
:1003D0000E94F309019729F081E090E00E94BA0899
:1003E000F6CF0E9459086B017C0188810E94F309B5
:1003F000892B29F081E090E00E94BA08F6CF0E9494
:1004000059089B01AC012C193D094E095F0969018E
:100410007A012AE030E0B701A60189E092E00E946B
:100420009007A2E2B0E0A70196010E94DE0C20ED49
:1004300037E040E050E00E94970CC901DF91CF9176
:10044000FF90EF90DF90CF900895FC017583648357
:1004500051834083338322830895DC01611103C0FB
:10046000ED91FC9104C01296ED91FC911397309799
:1004700021F0BA0184810C9400090895DC01611116
:1004800003C0ED91FC9104C01296ED91FC9113977D
:10049000309729F060E070E084810C9400090895A1
:1004A000CF93DF93FC0184818417E1F044836111D1
:1004B00003C0C081D18102C0C281D381209791F055
:1004C000411106C061E088810E94C40960E005C056
:1004D00060E088810E94C40961E08A81DF91CF9148
:1004E0000C94C409DF91CF910895CF93DF93EB0172
:1004F00061E08C810E94880961E088810E948809FE
:1005000061E08A810E94880960E070E08C810E942D
:10051000000960E088810E94C40961E08A81DF915E
:10052000CF910C94C409CF93DF93EC017983688356
:100530005B834A8381E08C831E821D826115710575
:1005400019F0CE010E9475026A817B8161157105E7
:1005500029F0CE01DF91CF910C947502DF91CF91FC
:1005600008956EE108960C94B604CF92DF92EF9254
:10057000FF920F931F93CF93DF93EC01822F8E0195
:10058000085F1F4F94EFC92EDD24D394E12CF12C8A
:10059000CE86DF86E88AF98A9AE0E6E0F1E0DE01BD
:1005A0005C9601900D929A95E1F71EA292E09FA3AE
:1005B0001CA61DA6798368835B834A832C833D83B5
:1005C00060E00E9488098FE190E00E94DC067C01D7
:1005D00020E04A8168810E94C90BFF82EE8240E8D8
:1005E00055E260E070E0C7010E94F40B6E817F81EC
:1005F00041E0C8010E94CE04811113C065E471E09E
:1006000089E092E00E94280766E571E089E092E0C7
:100610000E94280768E771E089E092E00E942807BD
:10062000FFCF62E971E089E092E00E94280760E074
:10063000C8010E94BB0462E0C8010E94C004CE0150
:10064000DF91CF911F910F91FF90EF90DF90CF90AE
:100650000C94B10262E070E008960C940B050896C9
:100660000C940F05FC0184810E94F30921E0892B81
:1006700009F020E0822F0895FC01862F60837183AA
:1006800062E00C948809CF93DF93EC0167EA71E094
:1006900089E092E00E94280788810E94F309EC011A
:1006A0004AE050E0BC0189E092E00E94F107CE01EF
:1006B000DF91CF910895FB013196695F7F4F80E014
:1006C00090E02191820F911DE617F707D1F79195E0
:1006D000819591090895DC011D96EC911D979196E5
:1006E000EC9391971F968C911F9790E0982F8827F5
:1006F00050962C915097820F911D93969C938E93B8
:1007000092974E2F50E0FA01FA97E631F10548F53D
:10071000EC5CFF4F0C94D80C5E961C925E9785E0C3
:1007200019C081FF2EC05E961C925E9784E012C0B5
:1007300081FF27C05E961C925E9782E00BC081FF0E
:1007400020C05E961C925E9783E004C05E961C9269
:100750005E9786E090968C93909781E094968C9328
:1007600008955E961C925E9781E090968C93909788
:1007700093961C921E92929794968C93949795962A
:100780001C920895CF93DF93EC01BC01665F7F4F0D
:100790000E945B03298930E0322F22274A89240FE7
:1007A000311D41E02817390709F040E0842FDF911F
:1007B000CF910895CF92DF92EF92FF920F931F9304
:1007C000CF93DF93EC0188819981DC01ED91FC915D
:1007D0000480F581E02D0995892B09F444C00E8D24
:1007E00088819981DC01ED91FC910680F781E02DF3
:1007F000011107C009958A878E3729F71CA28E8DB3
:100800002FC00995FE01E00FF11D82878E8D823089
:1008100049F0893059F0813019F59B859F3F01F1EE
:100820001E8E1AC09C859630D9F003C08B898F3EEE
:1008300011F01E8E10C0CE010E94C2031E8E8823AE
:1008400051F0CE010E946B031CA1112369F1888D28
:1008500081112AC026C081E088A31BA21AA220C051
:100860008F5F8E8FB0CF8DA18823E9F00E944D0855
:10087000CA80DB80EC80FD80DC01CB018C199D09F6
:10088000AE09BF09CE80DF80E884F9848C159D0510
:10089000AE05BF0540F01E8E18A21BA21AA281E071
:1008A0008CA31DA201C01CA1812FDF91CF911F91AC
:1008B0000F91FF90EF90DF90CF900895CF93DF934B
:1008C000EC01888D882339F08DA1882351F0CE0169
:1008D0000E94DA03F9CF6AE070E080E090E00E94C5
:1008E0007E0888819981DC01ED91FC910280F38181
:1008F000E02D4AE050E0BE016C5E7F4F09950E94FA
:100900004D086A837B838C839D8381E0988D911150
:1009100001C080E08DA3DF91CF910895CF93DF9345
:10092000EC016F8B598F4A8FBC016C5E7F4F0E9428
:100930005B039B8F8C8FCE01DF91CF910C945E0473
:1009400040E050E00C948E04CF93DF93EC0181E003
:100950008DA3CE010E94DA038823D9F381E098A108
:10096000911101C080E0DF91CF910895462F50E0B2
:1009700066E00C948E04462F50E067E00C948E04E1
:10098000462F50E069E00E948E0468EC70E080E041
:1009900090E00C947E086CE00C94A0041F93CF931D
:1009A000DF93EC01142F442319F081E0888F01C0FC
:1009B000188E798368838E819F81A885B985885434
:1009C000944FAF4FBF4F8E839F83A887B987CE01C7
:1009D0000E94CB04CE010E94A4048E819F81A88531
:1009E000B985885B9B40A109B1098E839F83A88745
:1009F000B98768EC70E080E090E00E947E081CA25D
:100A000088A1843019F081E0812701C081E0DF9165
:100A1000CF911F910895AB0162E10C948E0466E1C1
:100A20000C94A004FC01918D228D892F90E0805CB4
:100A30009F4F821B91098F7399270895FC01918D17
:100A4000828D981731F0828DE80FF11D858D90E031
:100A500008958FEF9FEF0895FC01918D828D981777
:100A600061F0828DDF01A80FB11D5D968C91928D92
:100A70009F5F9F73928F90E008958FEF9FEF08958F
:100A800085E996E0892B49F080E090E0892B29F0F8
:100A90000E94950681110C9400000895FC01848D3C
:100AA000DF01A80FB11DA35ABF4F2C91848D90E098
:100AB00001968F739927848FA689B7892C93A08973
:100AC000B1898C9180648C93938D848D981306C02A
:100AD0000288F389E02D80818F7D80830895EF92D5
:100AE000FF920F931F93CF93DF93EC0181E0888FE8
:100AF0009B8D8C8D981305C0E889F989808185FDCF
:100B000024C0F62E0B8D10E00F5F1F4F0F731127BF
:100B1000E02E8C8DE8120CC00FB607FCFACFE889E6
:100B2000F989808185FFF5CFCE010E944E05F1CF76
:100B30008B8DFE01E80FF11DE35AFF4FF0820B8F02
:100B4000EA89FB898081806207C0EE89FF89608322
:100B5000E889F98980818064808381E090E0DF9179
:100B6000CF911F910F91FF90EF900895CF93DF9356
:100B7000EC01888D8823C9F0EA89FB89808185FD95
:100B800005C0A889B9898C9186FD0FC00FB607FCF6
:100B9000F5CF808185FFF2CFA889B9898C9185FF37
:100BA000EDCFCE010E944E05E7CFDF91CF910895A2
:100BB000CF92DF92EF92FF921F93CF93DF93EC01DE
:100BC0006A017B01122FE889F98982E0808341154F
:100BD000514E61057105B1F060E079E08DE390E080
:100BE000A70196010E94970CDA01C9010197A1099A
:100BF000B109B695A795979587959C01211580E138
:100C00003807A8F0E889F989108260E874E88EE175
:100C100090E0A70196010E94970CDA01C9010197A3
:100C2000A109B109B695A795979587959C01EC8583
:100C3000FD853083EE85FF852083188EEC89FD8944
:100C40001083EA89FB89808180618083EA89FB893E
:100C5000808188608083EA89FB89808180688083C5
:100C6000EA89FB8980818F7D8083DF91CF911F91FD
:100C7000FF90EF90DF90CF9008951F920F920FB6E4
:100C80000F9211242F938F939F93EF93FF93E091F3
:100C90001902F0911A028081E0911F02F091200266
:100CA00082FD12C09081809122028F5F8F7320910C
:100CB0002302821751F0E0912202F0E0E75FFD4F3E
:100CC000958F8093220201C08081FF91EF919F91C7
:100CD0008F912F910F900FBE0F901F9018951F921C
:100CE0000F920FB60F9211242F933F934F935F9360
:100CF0006F937F938F939F93AF93BF93EF93FF93E4
:100D000089E092E00E944E05FF91EF91BF91AF9173
:100D10009F918F917F916F915F914F913F912F9113
:100D20000F900FBE0F901F90189589E092E00E94DF
:100D3000120521E0892B09F420E0822F0895E9E0D3
:100D4000F2E01382128288EE93E0A0E0B0E08483A8
:100D50009583A683B78389EC91E09183808385ECAA
:100D600090E09587848784EC90E09787868780EC75
:100D700090E0918B808B81EC90E0938B828B82EC66
:100D800090E0958B848B86EC90E0978B868B118E10
:100D9000128E138E148E089508950E94C5080E9425
:100DA000CC060E94A400C0E4D5E00E94D6002097A3
:100DB000E1F30E944005F9CF0C940C0DCF92DF9225
:100DC000EF92FF920F931F93CF93DF936C017A0101
:100DD0008B01C0E0D0E0CE15DF0581F0D8016D9128
:100DE0008D01D601ED91FC910190F081E02DC601BD
:100DF0000995892B11F02196EECF7E01C701DF9175
:100E0000CF911F910F91FF90EF90DF90CF900895B9
:100E10006115710579F0FB0101900020E9F7319728
:100E2000AF01461B570BDC01ED91FC910280F38171
:100E3000E02D099480E090E00895DC01ED91FC91B3
:100E40000190F081E02D099465ED71E00C940807A4
:100E50000F931F93CF93DF93EC010E9408078C013F
:100E6000CE010E942407800F911FDF91CF911F9127
:100E70000F9108958F929F92AF92BF92EF92FF923F
:100E80000F931F93CF93DF93CDB7DEB7A1970FB624
:100E9000F894DEBF0FBECDBF7C01FA01CB0119A2D1
:100EA000223008F42AE08E010F5D1F4F822E912C14
:100EB000A12CB12CBF01A50194010E94970CF9014E
:100EC000CA01015011096A3010F4605D01C0695C0B
:100ED000D8016C93232B242B252B61F7B801C70174
:100EE0000E940807A1960FB6F894DEBF0FBECDBFD3
:100EF000DF91CF911F910F91FF90EF90BF90AF9036
:100F00009F908F9008952115310541F4DC01ED91FA
:100F1000FC910190F081E02D642F09940C943A0724
:100F20000F931F93CF93DF93EC010E9483078C01F3
:100F3000CE010E942407800F911FDF91CF911F9156
:100F40000F910895CF92DF92EF92FF920F931F932C
:100F5000CF93DF932115310581F4DC01ED91FC91F4
:100F60000190F081E02D642FDF91CF911F910F91BF
:100F7000FF90EF90DF90CF9009942A30310501F572
:100F800077FF1DC06A017B01EC016DE20E941D0725
:100F90008C0144275527BA014C195D096E097F0958
:100FA0002AE0CE010E943A07800F911FDF91CF9176
:100FB0001F910F91FF90EF90DF90CF9008952AE05E
:100FC000DF91CF911F910F91FF90EF90DF90CF9025
:100FD0000C943A079A01AB01770F660B770B0C94D0
:100FE000A2070F931F93CF93DF93EC010E94EA07B0
:100FF0008C01CE010E942407800F911FDF91CF91B9
:101000001F910F9108951F920F920FB60F92112406
:101010002F933F938F939F93AF93BF938091A7029A
:101020009091A802A091A902B091AA023091A602C3
:1010300023E0230F2D3720F40196A11DB11D05C01B
:1010400026E8230F0296A11DB11D2093A6028093CE
:10105000A7029093A802A093A902B093AA0280913C
:10106000AB029091AC02A091AD02B091AE0201969C
:10107000A11DB11D8093AB029093AC02A093AD0271
:10108000B093AE02BF91AF919F918F913F912F91FD
:101090000F900FBE0F901F9018952FB7F894609186
:1010A000A7027091A8028091A9029091AA022FBF75
:1010B00008953FB7F8948091AB029091AC02A09153
:1010C000AD02B091AE0226B5A89B05C02F3F19F026
:1010D0000196A11DB11D3FBFBA2FA92F982F8827B8
:1010E000820F911DA11DB11DBC01CD0142E0660F13
:1010F000771F881F991F4A95D1F708958F929F9265
:10110000AF92BF92CF92DF92EF92FF926B017C0180
:101110000E9459084B015C01C114D104E104F1049F
:1011200001F10E94820C0E945908DC01CB01881950
:101130009909AA09BB09883E9340A105B10560F34E
:1011400021E0C21AD108E108F10888EE880E83E098
:10115000981EA11CB11CC114D104E104F10419F7BB
:10116000DBCFFF90EF90DF90CF90BF90AF909F903C
:101170008F9008958230910538F0880F991F880F5D
:10118000991F05970197F1F70895789484B58260C7
:1011900084BD84B5816084BD85B5826085BD85B51B
:1011A000816085BDEEE6F0E0808181608083E1E8CA
:1011B000F0E0108280818260808380818160808302
:1011C000E0E8F0E0808181608083E1EBF0E0808105
:1011D00084608083E0EBF0E0808181608083EAE7D7
:1011E000F0E0808184608083808182608083808160
:1011F000816080838081806880831092C10008951F
:101200001F93CF93DF93182FEB0161E00E948809B1
:10121000209711F460E004C0CF3FD10539F461E0BC
:10122000812FDF91CF911F910C94C409E12FF0E041
:10123000EC56FF4FE491E330F9F048F4E130B9F0B7
:10124000E230A1F584B5806284BDC8BD34C0E7300A
:10125000E9F0E83019F1E43049F5809180008062CE
:1012600080938000D0938B00C0938A0024C084B503
:10127000806884BDC7BD1FC0809180008068809356
:101280008000D0938900C093880015C08091B00081
:1012900080688093B000C093B3000DC08091B0000F
:1012A00080628093B000C093B40005C0C038D105FF
:1012B0000CF0B5CFAFCFDF91CF911F910895833060
:1012C00081F028F4813099F08230A1F008958730C0
:1012D000A9F08830B9F08430D1F4809180008F7DFE
:1012E00003C0809180008F7780938000089584B53B
:1012F0008F7702C084B58F7D84BD08958091B00042
:101300008F7703C08091B0008F7D8093B0000895E7
:10131000CF93DF9390E0FC01E855FF4F2491FC014F
:10132000E454FF4F8491882361F190E0880F991F66
:10133000FC01EC51FF4FC591D491FC01E652FF4FE7
:10134000A591B491611109C09FB7F8948881209547
:1013500082238883EC912E230BC0623061F49FB707
:10136000F8948881322F309583238883EC912E2B3B
:101370002C939FBF06C08FB7F894E8812E2B28834B
:101380008FBFDF91CF9108951F93CF93DF93282FC5
:1013900030E0F901EC56FF4F8491F901E855FF4F19
:1013A000D491F901E454FF4FC491CC23C1F0162F1E
:1013B00081110E945F09EC2FF0E0EE0FFF1FE65253
:1013C000FF4FA591B4919FB7F894111104C08C916F
:1013D000D095D82302C0EC91DE2BDC939FBFDF9128
:1013E000CF911F910895CF93DF93282F30E0F9011B
:1013F000EC56FF4F8491F901E855FF4FD491F90164
:10140000E454FF4FC491CC2391F081110E945F09F5
:10141000EC2FF0E0EE0FFF1FE053FF4FA591B491CA
:10142000EC91ED2381E090E021F480E002C080E0C7
:1014300090E0DF91CF9108952091F1023091F20276
:1014400028173907B9F49091AF028091B00298172C
:1014500089F0E091AF02F0E0EF54FD4F80812091E0
:10146000AF0230E02F5F3F4F2F7333272093AF023F
:1014700090E008958FEF9FEF08951F93CF93DF9330
:10148000DC015C968D919C915D97009739F421E089
:1014900030E013963C932E9312973BC05196ED91FA
:1014A000FC91529750962C915097322F30951FB740
:1014B0005E964C915E97742F727041FD6095F89422
:1014C0004081772311F0422B01C043234083EC017C
:1014D0002197F1F748E0508160FF02C0522B01C014
:1014E00053235083EC012197F1F76695415099F70A
:1014F0008081772319F08323808302C0282B2083E7
:101500001FBF5C968D919C915D970197F1F781E0EB
:1015100090E0DF91CF911F91089508952091F102FD
:101520003091F2022817390771F49091AF0280913F
:10153000B002981741F0E091AF02F0E0EF54FD4F98
:10154000808190E008958FEF9FEF08952091F10240
:101550003091F2022817390771F48091B00220917E
:10156000AF0290E0805C9F4F821B910960E470E0C5
:101570000E94830C089580E090E00895E091F102CC
:10158000F091F202E817F90769F4A389B4899C91F4
:101590008589809589238C931092F2021092F10232
:1015A00081E0089580E00895CF93DF93EC018A8D68
:1015B0009B8D892BF1F08091F1029091F202C81776
:1015C000D907B9F0009711F00E94BE0A8E8D8E7F68
:1015D0008E8F1092B0021092AF02D093F202C0939D
:1015E000F102EB89FC8990818D89892B808381E0D0
:1015F00001C080E0DF91CF9108951F920F920FB646
:101600000F9211242F933F934F935F936F937F9388
:101610008F939F93AF93BF93EF93FF93E091F1026A
:10162000F091F202309709F451C0968DA685B785E6
:10163000858591FF04C09C91892329F447C09C9122
:10164000892309F043C0A389B4899C918589809539
:1016500089238C93868997890197F1F7608D718D25
:10166000A685B785558538E020E0CB010197F1F7D5
:10167000822F90E095958795282F4C91452309F06E
:101680002068315091F7868D81FD20958091B002C0
:1016900090E001968F7399273091AF02381749F087
:1016A000A091B002B0E0AF54BD4F2C938093B00234
:1016B00003C0868D8160868F828D938D0197F1F7AF
:1016C000A389B4899C918589892B8C93FF91EF9193
:1016D000BF91AF919F918F917F916F915F914F914A
:1016E0003F912F910F900FBE0F901F9018951F9351
:1016F000CF93DF93EC01162F6E8D6695617081E0BC
:101700006827812F0E94C40961E0812F0E94880907
:10171000812F90E0FC01E855FF4FE491E88BFC013C
:10172000E454FF4FE491F0E0EE0FFF1FE652FF4F4D
:10173000859194919A8B898BDF91CF911F91089518
:101740001F93CF93DF93EC01162F60E0812F0E944F
:1017500088098E8D81FD04C061E0812F0E94C4093B
:101760001C87812F90E0FC01E855FF4FE491ED8745
:10177000FC01E454FF4FE491F0E0EE0FFF1FE05353
:10178000FF4F859194919F878E87DF91CF911F9115
:1017900008951F93CF93DF93EC01162F1B821A82BB
:1017A00088EE93E0A0E0B0E08C839D83AE83BF839E
:1017B00088EE91E0998388831F8A1E8A198E188E7D
:1017C0001B8E1A8E1D8E1C8E8E8D8E7F20FB81F9B6
:1017D0008E8F642FCE010E94770B612FCE01DF9197
:1017E000CF911F910C94A00BCF93DF93EC019A0142
:1017F000AB011B8E1A8E198E188E1F8A1E8A60E00E
:1018000079E08DE390E00E94B90CF90124303105B4
:1018100018F0C901039702C081E090E09D8F8C8F82
:101820006C85663108F069C0C90196958795843149
:10183000910510F0439702C081E090E09F8B8E8B62
:10184000369718F0C901059702C081E090E0998FA2
:10185000888FC901880F991F280F391F3695279542
:10186000369527952D30310518F02C50310902C0DE
:1018700021E030E03B8F2A8F90916800683050F073
:1018800021E06E3008F420E081E001C0880F2A9545
:10189000EAF701C084E0892B809368009C8598302A
:1018A00038F09E3040F0963148F020E030E008C03B
:1018B0002DE630E005C02BE630E002C02CE630E03B
:1018C0003C8B2B8B983030F481E001C0880F9A95C7
:1018D000EAF70EC0292F30E09E3018F42850310965
:1018E00002C02E50310981E001C0880F2A95EAF725
:1018F0008D8B8C8D9D8D0197F1F7CE01DF91CF916E
:101900000C94D40A089597FB072E16F4009407D080
:1019100077FD09D00E94E90C07FC05D03EF49095B4
:1019200081959F4F0895709561957F4F0895A1E22D
:101930001A2EAA1BBB1BFD010DC0AA1FBB1FEE1F49
:10194000FF1FA217B307E407F50720F0A21BB30B94
:10195000E40BF50B661F771F881F991F1A9469F710
:1019600060957095809590959B01AC01BD01CF016C
:101970000895052E97FB1EF400940E94D00C57FD8D
:1019800007D00E94970C07FC03D04EF40C94D00CA7
:1019900050954095309521953F4F4F4F5F4F08959B
:1019A00090958095709561957F4F8F4F9F4F0895CB
:1019B000EE0FFF1F0590F491E02D09940E94FD0C9D
:1019C000A59F900DB49F900DA49F800D911D112493
:1019D0000895AA1BBB1B51E107C0AA1FBB1FA61776
:1019E000B70710F0A61BB70B881F991F5A95A9F7C8
:1019F00080959095BC01CD010895A29FB001B39F41
:101A0000C001A39F700D811D1124911DB29F700D07
:101A1000811D1124911D08950F931F93CF93DF9380
:101A20008230910510F482E090E0E091F502F091AF
:101A3000F60220E030E0A0E0B0E0309719F14081FC
:101A400051810281138148175907C8F084179507FF
:101A500069F4109731F012960C93129713961C9319
:101A600027C00093F5021093F60222C0211531051C
:101A700019F04217530718F49A01BD01EF01DF0175
:101A8000F801DBCF21153105F9F0281B390B243083
:101A9000310580F48A819B816115710521F0FB017C
:101AA0009383828304C09093F6028093F502FE0133
:101AB000329644C0FE01E20FF31F819391932250AE
:101AC0003109398328833AC02091F3023091F4021E
:101AD000232B41F420910201309103013093F40251
:101AE0002093F3022091000130910101211531056D
:101AF00041F42DB73EB74091040150910501241BDC
:101B0000350BE091F302F091F402E217F307A0F431
:101B10002E1B3F0B2817390778F0AC014E5F5F4F43
:101B20002417350748F04E0F5F1F5093F40240937F
:101B3000F3028193919302C0E0E0F0E0CF01DF91E6
:101B4000CF911F910F910895CF93DF93009709F4E0
:101B500081C0FC01329713821282A091F502B091EC
:101B6000F602109781F420813181820F931F20911A
:101B7000F3023091F4022817390751F5F093F4027B
:101B8000E093F30267C0ED0120E030E0CE17DF07FD
:101B900040F44A815B819E0141155105F1F0EA0153
:101BA000F5CFD383C28340815181840F951FC8171D
:101BB000D90759F488819981840F951F02969183E2
:101BC00080838A819B81938382832115310529F447
:101BD000F093F602E093F5023DC0E901FB83EA834E
:101BE00049915991C40FD51FEC17FD0761F480810D
:101BF0009181840F951F0296E901998388838281E0
:101C000093819B838A83E0E0F0E012968D919C9112
:101C10001397009719F0FD01DC01F7CF8D919C918E
:101C200011979D012E5F3F4F820F931F2091F3026A
:101C30003091F4022817390769F4309729F410928B
:101C4000F6021092F50202C013821282B093F402DF
:101C5000A093F302DF91CF91089510E0C9E7D0E09F
:101C600004C0FE010E94D80C2196CA37D107C9F7DB
:041C7000F894FFCF16
:101C74000000F70220007EFF06000100000000EFD4
:101C84005374617274696E672070726F6772616DEC
:101C940020666F7220416C69656E2043616B65003C
:101CA40044697374616E6365206465746563746FFD
:101CB40072206F6E00556E61626C6520746F2062D5
:101CC4006567696E3A00312E20506C65617365203A
:101CD4007265636865636B2074686520636F6E6EFC
:101CE400656374696F6E2100322E20506C656173D8
:101CF4006520696E73657274205344206361726455
:101D040021004D503320706C617965722069732015
:101D14006F6E6C696E6500436865636B696E6720FE
:101D24006966207265656420697320636F6E6E65F1
:101D34006374656400000000006F05DE0612052C64
:101D4400051E05B6050D0A006E616E00696E66001B
:101D54006F766600000000003D0ADE06A60A1C0A33
:041D64008E0A8D0A4C
:00000001FF
