:100000000C9464000C948C000C948C000C94F205FD
:100010000C94F2050C94F2050C948C000C948C005A
:100020000C948C000C948C000C948C000C948C0020
:100030000C948C000C948C000C948C000C948C0010
:100040000C9444040C948C000C9480020C94B20226
:100050000C948C000C948C000C948C000C948C00F0
:100060000C948C000C948C0000000008000201002D
:100070000003040700000000000000000102040863
:100080001020408001020408102001020408102002
:10009000040404040404040402020202020203032E
:1000A00003030303000000002300260029000000D2
:1000B0000000250028002B0000000000240027007D
:1000C0002A00C800E202D60011241FBECFEFD8E0FC
:1000D000DEBFCDBF11E0A0E0B1E0E8E7FDE002C087
:1000E00005900D92A435B107D9F722E0A4E5B1E05F
:1000F00001C01D92A434B207E1F710E0C3E6D0E0DE
:1001000004C02197FE010E948F06C136D107C9F7AE
:100110000E9410030C94AF060C94000026E040E807
:1001200055E260E070E08AE591E00E941B0260E029
:1001300071E08AE591E00E94690388E591E00C9402
:10014000E700CF93DF9360E271E08AE591E00E94DF
:10015000690384E591E00E940E01EC014AE050E061
:10016000BC018AE591E00E9432042197E19750F4A6
:1001700088E591E00E94E20060ED77E080E090E0A9
:100180000E94B30488E591E0DF91CF910C94E700E1
:1001900064E070E088E591E00E94DA0046E050E01B
:1001A00067E070E084E591E00C94EC0088E591E074
:1001B0000C94E100FC01862F6083718361E00C9454
:1001C0005E05089561E0FC0180810C949A0560E071
:1001D000FC0180810C949A05CF93DF93EC01862F6C
:1001E000688379835B834A8360E00E945E0561E0F7
:1001F0008A81DF91CF910C945E05CF93DF93EC0160
:1002000061E08A810E949A058AE090E00E94EF04F2
:1002100060E08A81DF91CF910C949A05CF92DF92B2
:10022000EF92FF92CF93DF93EC010E94FD00888153
:100230000E94C905019729F081E090E00E94EF0437
:10024000F6CF0E948E046B017C0188810E94C90553
:10025000892B29F081E090E00E94EF04F6CF0E9404
:100260008E049B01AC012C193D094E095F096901FF
:100270007A012AE030E0B701A6018AE591E00E9408
:10028000D103A2E2B0E0A70196010E94950620EDFD
:1002900037E040E050E00E946D06C901DF91CF9148
:1002A000FF90EF90DF90CF900895FC01918D228D0B
:1002B000892F90E0805C9F4F821B91098F73992753
:1002C0000895FC01918D828D981731F0828DE80F91
:1002D000F11D858D90E008958FEF9FEF0895FC014B
:1002E000918D828D981761F0828DDF01A80FB11D6D
:1002F0005D968C91928D9F5F9F73928F90E0089591
:100300008FEF9FEF089588ED92E0892B49F080E010
:1003100090E0892B29F00E94D80281110C940000F2
:100320000895FC01848DDF01A80FB11DA35ABF4FB2
:100330002C91848D90E001968F739927848FA689E4
:10034000B7892C93A089B1898C9180648C93938D0B
:10035000848D981306C00288F389E02D80818F7DFB
:1003600080830895EF92FF920F931F93CF93DF93B3
:10037000EC0181E0888F9B8D8C8D981305C0E889F6
:10038000F989808185FD24C0F62E0B8D10E00F5F6A
:100390001F4F0F731127E02E8C8DE8120CC00FB683
:1003A00007FCFACFE889F989808185FFF5CFCE0176
:1003B0000E949101F1CF8B8DFE01E80FF11DE35AF0
:1003C000FF4FF0820B8FEA89FB898081806207C032
:1003D000EE89FF896083E889F98980818064808360
:1003E00081E090E0DF91CF911F910F91FF90EF900E
:1003F0000895CF93DF93EC01888D8823C9F0EA89B3
:10040000FB89808185FD05C0A889B9898C9186FD0D
:100410000FC00FB607FCF5CF808185FFF2CFA8890A
:10042000B9898C9185FFEDCFCE010E949101E7CF74
:10043000DF91CF910895CF92DF92EF92FF921F93B9
:10044000CF93DF93EC016A017B01122FE889F989D0
:1004500082E080834115514E61057105B1F060E085
:1004600079E08DE390E0A70196010E946D06DA0124
:10047000C9010197A109B109B695A79597958795E7
:100480009C01211580E13807A8F0E889F9891082DC
:1004900060E874E88EE190E0A70196010E946D0685
:1004A000DA01C9010197A109B109B695A7959795F8
:1004B00087959C01EC85FD853083EE85FF85208343
:1004C000188EEC89FD891083EA89FB89808180611F
:1004D0008083EA89FB89808188608083EA89FB893F
:1004E000808180688083EA89FB8980818F7D808319
:1004F000DF91CF911F91FF90EF90DF90CF90089503
:100500001F920F920FB60F9211242F938F939F93E8
:10051000EF93FF93E0916A01F0916B018081E0918C
:100520007001F091710182FD12C090818091730180
:100530008F5F8F7320917401821751F0E0917301E6
:10054000F0E0E65AFE4F958F8093730101C08081E1
:10055000FF91EF919F918F912F910F900FBE0F9070
:100560001F9018951F920F920FB60F9211242F9380
:100570003F934F935F936F937F938F939F93AF932B
:10058000BF93EF93FF938AE591E00E949101FF9161
:10059000EF91BF91AF919F918F917F916F915F91FB
:1005A0004F913F912F910F900FBE0F901F90189574
:1005B0008AE591E00E94550121E0892B09F420E0B1
:1005C000822F0895EAE5F1E01382128288EE93E02B
:1005D000A0E0B0E084839583A683B78389E391E0AC
:1005E0009183808385EC90E09587848784EC90E00C
:1005F0009787868780EC90E0918B808B81EC90E0F0
:10060000938B828B82EC90E0958B848B86EC90E0D0
:10061000978B868B118E128E138E148E08950895EB
:100620000E94FA040E940F030E948E00C3E8D1E0EA
:100630000E94A1002097E1F30E948301F9CFCF929D
:10064000DF92EF92FF920F931F93CF93DF936C0192
:100650007A018B01C0E0D0E0CE15DF0581F0D80132
:100660006D918D01D601ED91FC910190F081E02D0D
:10067000C6010995892B11F02196EECF7E01C701A5
:10068000DF91CF911F910F91FF90EF90DF90CF906E
:1006900008956115710579F0FB0101900020E9F7DB
:1006A0003197AF01461B570BDC01ED91FC910280A5
:1006B000F381E02D099480E090E00895DC01ED9154
:1006C000FC910190F081E02D099465E471E00C94B7
:1006D00049030F931F93CF93DF93EC010E944903CB
:1006E0008C01CE010E946503800F911FDF91CF9195
:1006F0001F910F9108958F929F92AF92BF92EF92A8
:10070000FF920F931F93CF93DF93CDB7DEB7A197DF
:100710000FB6F894DEBF0FBECDBF7C01FA01CB014E
:1007200019A2223008F42AE08E010F5D1F4F822E9D
:10073000912CA12CB12CBF01A50194010E946D0642
:10074000F901CA01015011096A3010F4605D01C05D
:10075000695CD8016C93232B242B252B61F7B801FE
:10076000C7010E944903A1960FB6F894DEBF0FBEE1
:10077000CDBFDF91CF911F910F91FF90EF90BF9070
:10078000AF909F908F9008952115310541F4DC01C1
:10079000ED91FC910190F081E02D642F09940C946F
:1007A0007B030F931F93CF93DF93EC010E94C4034D
:1007B0008C01CE010E946503800F911FDF91CF91C4
:1007C0001F910F910895CF92DF92EF92FF920F93B6
:1007D0001F93CF93DF932115310581F4DC01ED9157
:1007E000FC910190F081E02D642FDF91CF911F915A
:1007F0000F91FF90EF90DF90CF9009942A30310550
:1008000001F577FF1DC06A017B01EC016DE20E94DA
:100810005E038C0144275527BA014C195D096E0906
:100820007F092AE0CE010E947B03800F911FDF9198
:10083000CF911F910F91FF90EF90DF90CF9008958F
:100840002AE0DF91CF911F910F91FF90EF90DF9001
:10085000CF900C947B039A01AB01770F660B770B5B
:100860000C94E3030F931F93CF93DF93EC010E944B
:100870002B048C01CE010E946503800F911FDF9134
:10088000CF911F910F9108951F920F920FB60F9263
:1008900011242F933F938F939F93AF93BF93809196
:1008A000F8019091F901A091FA01B091FB0130910A
:1008B000F70123E0230F2D3720F40196A11DB11D70
:1008C00005C026E8230F0296A11DB11D2093F70154
:1008D0008093F8019093F901A093FA01B093FB0182
:1008E0008091FC019091FD01A091FE01B091FF016A
:1008F0000196A11DB11D8093FC019093FD01A09371
:10090000FE01B093FF01BF91AF919F918F913F91F5
:100910002F910F900FBE0F901F9018953FB7F8942E
:100920008091FC019091FD01A091FE01B091FF0129
:1009300026B5A89B05C02F3F19F00196A11DB11D3A
:100940003FBFBA2FA92F982F8827820F911DA11D75
:10095000B11DBC01CD0142E0660F771F881F991FB2
:100960004A95D1F708958F929F92AF92BF92CF92FE
:10097000DF92EF92FF926B017C010E948E044B018B
:100980005C01C114D104E104F10401F10E946C0680
:100990000E948E04DC01CB0188199909AA09BB09C0
:1009A000883E9340A105B10560F321E0C21AD10849
:1009B000E108F10888EE880E83E0981EA11CB11CA6
:1009C000C114D104E104F10419F7DBCFFF90EF90DB
:1009D000DF90CF90BF90AF909F908F90089582301E
:1009E000910538F0880F991F880F991F0597019777
:1009F000F1F70895789484B5826084BD84B58160F0
:100A000084BD85B5826085BD85B5816085BDEEE616
:100A1000F0E0808181608083E1E8F0E010828081F5
:100A200082608083808181608083E0E8F0E0808163
:100A300081608083E1EBF0E0808184608083E0EB83
:100A4000F0E0808181608083EAE7F0E0808184606B
:100A500080838081826080838081816080838081C7
:100A6000806880831092C1000895833081F028F45B
:100A7000813099F08230A1F008958730A9F0883054
:100A8000B9F08430D1F4809180008F7D03C08091D3
:100A900080008F7780938000089584B58F7702C09F
:100AA00084B58F7D84BD08958091B0008F7703C099
:100AB0008091B0008F7D8093B0000895CF93DF9335
:100AC00090E0FC01E458FF4F2491FC01E057FF4FF8
:100AD0008491882361F190E0880F991FFC01E8540C
:100AE000FF4FC591D491FC01E255FF4FA591B49100
:100AF000611109C09FB7F89488812095822388836B
:100B0000EC912E230BC0623061F49FB7F89488817A
:100B1000322F309583238883EC912E2B2C939FBF0B
:100B200006C08FB7F894E8812E2B28838FBFDF9102
:100B3000CF9108951F93CF93DF93282F30E0F901D1
:100B4000E859FF4F8491F901E458FF4FD491F9011E
:100B5000E057FF4FC491CC23C1F0162F81110E94A2
:100B60003505EC2FF0E0EE0FFF1FE255FF4FA5918A
:100B7000B4919FB7F894111104C08C91D095D823EB
:100B800002C0EC91DE2BDC939FBFDF91CF911F91D0
:100B90000895CF93DF93282F30E0F901E859FF4FF4
:100BA0008491F901E458FF4FD491F901E057FF4FC8
:100BB000C491CC2391F081110E943505EC2FF0E017
:100BC000EE0FFF1FEC55FF4FA591B491EC91ED2373
:100BD00081E090E021F480E002C080E090E0DF91CD
:100BE000CF9108951F920F920FB60F9211242F9359
:100BF0003F934F935F936F937F938F939F93AF93A5
:100C0000BF93EF93FF93E0914202F091430230973C
:100C100009F451C0968DA685B785858591FF04C0DE
:100C20009C91892329F447C09C91892309F043C0F2
:100C3000A389B4899C918589809589238C93868921
:100C400097890197F1F7608D718DA685B7855585D8
:100C500038E020E0CB010197F1F7822F90E09595E5
:100C60008795282F4C91452309F02068315091F742
:100C7000868D81FD20958091010290E001968F7311
:100C8000992730910002381749F0A0910102B0E095
:100C9000AE5FBD4F2C938093010203C0868D8160AF
:100CA000868F828D938D0197F1F7A389B4899C91EA
:100CB0008589892B8C93FF91EF91BF91AF919F9183
:100CC0008F917F916F915F914F913F912F910F90F5
:100CD0000FBE0F901F9018950895A1E21A2EAA1B1F
:100CE000BB1BFD010DC0AA1FBB1FEE1FFF1FA217DC
:100CF000B307E407F50720F0A21BB30BE40BF50BD9
:100D0000661F771F881F991F1A9469F76095709561
:100D1000809590959B01AC01BD01CF010895EE0F28
:100D2000FF1F0590F491E02D09940E94A006A59F55
:100D3000900DB49F900DA49F800D911D11240895D6
:100D4000A29FB001B39FC001A39F700D811D11240C
:100D5000911DB29F700D811D1124911D089510E009
:100D6000C3E6D0E004C0FE010E948F062196C4367F
:080D7000D107C9F7F894FFCF89
:100D78005374617274696E672070726F6772616D07
:100D880020666F7220416C69656E2043616B650057
:100D980044697374616E6365206465746563746F18
:100DA80072206F6E0000000000B2011F0355016F32
:100DB800016101F9010D0A006E616E00696E66003D
:040DC8006F766600DC
:00000001FF
