S0110000416C69656E43616B652E73726563B6
S11300000C948A000C94B2000C94B2000C94120A62
S11300100C94120A0C94120A0C94B2000C94B200C0
S11300200C94B2000C94B2000C94B2000C94B20084
S11300300C94B2000C94B2000C94B2000C94B20074
S11300400C9477070C94B2000C94B1050C94E3055E
S11300500C94B2000C94B2000C94B2000C94B20054
S11300600C94B2000C94B2000F0316032403030390
S1130070240308031D033603240324032403240355
S11300802403240324032403280324032403240330
S113009024032403A60BAD0BB40BBB0BC20BD90B6F
S11300A0C90BD90BD00B4A0C500C560C5C0C620CCF
S11300B0680C6E0C00000008000201000003040735
S11300C0000000000000000001020408102040802D
S11300D0010204081020010204081020040404048E
S11300E004040404020202020202030303030303DE
S11300F00000000023002600290000000000250065
S113010028002B0000000000240027002A000D0115
S113011013063A0111241FBECFEFD8E0DEBFCDBFD6
S113012011E0A0E0B1E0EAEDF9E202C005900D9221
S1130130A03FB107D9F722E0A0EFB1E001C01D92C2
S1130140A43FB207E1F710E0C9E8D0E004C021976A
S1130150FE010E948B13C738D107C9F70E944106DC
S11301600C94E0140C940000CF93DF9326E040E855
S113017055E260E070E086E092E00E944C0560E1A8
S113018071E086E092E00E949C068CE290E00E947E
S11301905006EC014BE050E06AE070E00E9405027A
S11301A0D093FF01C093FE0168EE73E080E090E01D
S11301B00E94F20784E092E0DF91CF910C944B010E
S11301C0CF93DF9360E371E086E092E00E949C06A7
S11301D080E092E00E947201EC014AE050E0BC0130
S11301E086E092E00E9465072197E19780F484E01D
S11301F092E00E9446018091FE019091FF010E94CD
S11302006E0260ED77E080E090E00E94F20784E007
S113021092E0DF91CF910C944B01CF92DF92EF9259
S1130220FF920F931F9364E070E084E092E00E94D9
S11302303E0146E050E067E070E080E092E00E941A
S11302405001C12CD12C8AE7E82E84E4F82E03E077
S113025010E029E030E048E050E065E070E080EF35
S113026091E00E94B9011F910F91FF90EF90DF90F0
S1130270CF90089584E092E00C944501FC01862F10
S11302806083718361E00C949D08089561E0FC0132
S113029080810C94D90860E0FC0180810C94D90819
S11302A0CF93DF93EC01862F688379835B834A8342
S11302B060E00E949D0861E08A81DF91CF910C94F7
S11302C09D08CF93DF93EC0161E08A810E94D908F5
S11302D08AE090E00E942E0860E08A81DF91CF914D
S11302E00C94D908CF92DF92EF92FF92CF93DF93D1
S11302F0EC010E94610188810E940809019729F09C
S113030081E090E00E942E08F6CF0E94CD076B0199
S11303107C0188810E940809892B29F081E090E002
S11303200E942E08F6CF0E94CD079B01AC012C1928
S11303303D094E095F0969017A012AE030E0B701FD
S1130340A60186E092E00E940407A2E2B0E0A701C1
S113035096010E94911320ED37E040E050E00E94A6
S11303604A13C901DF91CF91FF90EF90DF90CF90B6
S11303700895AF92BF92CF92DF92EF92FF920F93C4
S11303801F93CF93DF93EC01798368835B834A8364
S11303903D832C831F830E83C886D986EA86FB8619
S11303A084E490E00E9450065C01CC24C394EE8067
S11303B00C812A81488168E00E948C0FBD86AC863E
S11303C040E050E06AE774E4C5010E94EE0F40E0AB
S11303D050E068EC72E48C859D850E94601040E0DA
S11303E050E068E473E48C859D85DF91CF911F9183
S11303F00F91FF90EF90DF90CF90BF90AF900C944F
S113040084106EE106960C942D04EF92FF920F93E4
S11304101F93CF93DF93EC018C010A5F1F4F84EF8E
S113042091E0A0E0B0E08C879D87AE87BF878AE02B
S1130430E6E0F1E0DE015A9601900D928A95E1F72B
S11304401CA282E08DA31AA61BA6798368835B8312
S11304504A838FE190E00E9450067C0120E04A81AB
S113046068810E94DE0AFD82EC8240E855E260E089
S113047070E0C7010E94090B6C817D8141E0C801D5
S11304800E944504811113C065E471E086E092E0A6
S11304900E949C0666E571E086E092E00E949C065C
S11304A068E771E086E092E00E949C06FFCF62E973
S11304B071E086E092E00E949C0660E0C8010E9420
S11304C0320462E0C8010E943704CE01DF91CF916B
S11304D01F910F91FF90EF900C94010262E070E085
S11304E006960C9482040E947A026894B1110C94CA
S11304F0CC0208950E94B10288F09F5798F0B92F5A
S11305009927B751B0F0E1F0660F771F881F991F44
S11305101AF0BA95C9F714C0B13091F00E94CB0219
S1130520B1E008950C94CB02672F782F8827B85F29
S113053039F0B93FCCF3869577956795B395D9F79C
S11305403EF490958095709561957F4F8F4F9F4FA6
S1130550089557FD9058440F551F59F05F3F71F0AF
S11305604795880F97FB991F61F09F3F79F0879516
S11305700895121613061406551FF2CF4695F1DF9F
S113058008C0161617061806991FF1CF869571052F
S1130590610508940895E894BB2766277727CB0163
S11305A097F90895FB013196695F7F4F80E090E0F1
S11305B02191820F911DE617F707D1F79195819547
S11305C091090895DC011D96EC911D979196EC9389
S11305D091971F968C911F9790E0982F882750969B
S11305E02C915097820F911D93969C938E93929782
S11305F04E2F50E0FA01FA97E631F10548F5EC5C2C
S1130600FF4F0C948B135E961C925E9785E019C085
S113061081FF2EC05E961C925E9784E012C081FF1B
S113062027C05E961C925E9782E00BC081FF20C0BB
S11306305E961C925E9783E004C05E961C925E9761
S113064086E090968C93909781E094968C9308958D
S11306505E961C925E9781E090968C939097939609
S11306601C921E92929794968C93949795961C92B2
S11306700895CF93DF93EC01BC01665F7F4F0E9426
S1130680D202298930E0322F22274A89240F311DD2
S113069041E02817390709F040E0842FDF91CF911A
S11306A00895CF92DF92EF92FF920F931F93CF930F
S11306B0DF93EC0188819981DC01ED91FC91048048
S11306C0F581E02D0995892B09F444C00E8D8881AC
S11306D09981DC01ED91FC910680F781E02D0111F7
S11306E007C009958A878E3729F71CA28E8D2FC0E3
S11306F00995FE01E00FF11D82878E8D823049F04D
S1130700893059F0813019F59B859F3F01F11E8E88
S11307101AC09C859630D9F003C08B898F3E11F0A6
S11307201E8E10C0CE010E9439031E8E882351F004
S1130730CE010E94E2021CA1112369F1888D81116E
S11307402AC026C081E088A31BA21AA220C08F5F02
S11307508E8FB0CF8DA18823E9F00E94C107CA8093
S1130760DB80EC80FD80DC01CB018C199D09AE0996
S1130770BF09CE80DF80E884F9848C159D05AE0521
S1130780BF0540F01E8E18A21BA21AA281E08CA302
S11307901DA201C01CA1812FDF91CF911F910F9148
S11307A0FF90EF90DF90CF900895CF93DF93EC010B
S11307B0888D882339F08DA1882351F0CE010E94C1
S11307C05103F9CF6AE070E080E090E00E94F20704
S11307D088819981DC01ED91FC910280F381E02D07
S11307E04AE050E0BE016C5E7F4F09950E94C1074C
S11307F06A837B838C839D8381E0988D911101C0F2
S113080080E08DA3DF91CF910895CF93DF93EC0126
S11308106F8B598F4A8FBC016C5E7F4F0E94D2024E
S11308209B8F8C8FCE01DF91CF910C94D50340E048
S113083050E00C940504CF93DF93EC0181E08DA389
S1130840CE010E9451038823D9F381E098A191112C
S113085001C080E0DF91CF910895462F50E066E01B
S11308600C940504462F50E067E00C940504462FD1
S113087050E069E00E94050468EC70E080E090E0DC
S11308800C94F2076CE00C9417041F93CF93DF933E
S1130890EC01142F442319F081E0888F01C0188ED5
S11308A0798368838E819F81A885B9858854944F04
S11308B0AF4FBF4F8E839F83A887B987CE010E9415
S11308C04204CE010E941B048E819F81A885B985B4
S11308D0885B9B40A109B1098E839F83A887B98750
S11308E068EC70E080E090E00E94F2071CA288A10E
S11308F0843019F081E0812701C081E0DF91CF913C
S11309001F910895AB0162E10C940504FC01918DE3
S1130910228D892F90E0805C9F4F821B91098F73F9
S113092099270895FC01918D828D981731F0828D5D
S1130930E80FF11D858D90E008958FEF9FEF0895E6
S1130940FC01918D828D981761F0828DDF01A80FD3
S1130950B11D5D968C91928D9F5F9F73928F90E0F5
S113096008958FEF9FEF089589E096E0892B49F071
S113097080E090E0892B29F00E94090681110C94F3
S113098000000895FC01848DDF01A80FB11DA35A56
S1130990BF4F2C91848D90E001968F739927848F9B
S11309A0A689B7892C93A089B1898C9180648C9392
S11309B0938D848D981306C00288F389E02D80817D
S11309C08F7D80830895EF92FF920F931F93CF93AF
S11309D0DF93EC0181E0888F9B8D8C8D981305C08B
S11309E0E889F989808185FD24C0F62E0B8D10E0FD
S11309F00F5F1F4F0F731127E02E8C8DE8120CC070
S1130A000FB607FCFACFE889F989808185FFF5CF15
S1130A10CE010E94C204F1CF8B8DFE01E80FF11DBF
S1130A20E35AFF4FF0820B8FEA89FB898081806251
S1130A3007C0EE89FF896083E889F9898081806431
S1130A40808381E090E0DF91CF911F910F91FF901F
S1130A50EF900895CF93DF93EC01888D8823C9F03C
S1130A60EA89FB89808185FD05C0A889B9898C91B3
S1130A7086FD0FC00FB607FCF5CF808185FFF2CF4E
S1130A80A889B9898C9185FFEDCFCE010E94C2045B
S1130A90E7CFDF91CF910895CF92DF92EF92FF924B
S1130AA01F93CF93DF93EC016A017B01122FE88936
S1130AB0F98982E080834115514E61057105B1F0D9
S1130AC060E079E08DE390E0A70196010E944A136B
S1130AD0DA01C9010197A109B109B695A7959795BE
S1130AE087959C01211580E13807A8F0E889F989E8
S1130AF0108260E874E88EE190E0A70196010E94FC
S1130B004A13DA01C9010197A109B109B695A7955C
S1130B10979587959C01EC85FD853083EE85FF854F
S1130B202083188EEC89FD891083EA89FB898081F2
S1130B3080618083EA89FB89808188608083EA8977
S1130B40FB89808180688083EA89FB8980818F7D2D
S1130B508083DF91CF911F91FF90EF90DF90CF9032
S1130B6008951F920F920FB60F9211242F938F9313
S1130B709F93EF93FF93E0911602F0911702808107
S1130B80E0911C02F0911D0282FD12C090818091BF
S1130B901F028F5F8F7320912002821751F0E09122
S1130BA01F02F0E0EA5FFD4F958F80931F0201C0A2
S1130BB08081FF91EF919F918F912F910F900FBEA4
S1130BC00F901F9018951F920F920FB60F92112439
S1130BD02F933F934F935F936F937F938F939F9341
S1130BE0AF93BF93EF93FF9386E092E00E94C20419
S1130BF0FF91EF91BF91AF919F918F917F916F91F1
S1130C005F914F913F912F910F900FBE0F901F90C6
S1130C10189586E092E00E94860421E0892B09F46D
S1130C2020E0822F0895E6E0F2E01382128288EE3B
S1130C3093E0A0E0B0E084839583A683B7838BEA36
S1130C4091E09183808385EC90E09587848784ECA0
S1130C5090E09787868780EC90E0918B808B81EC85
S1130C6090E0938B828B82EC90E0958B848B86EC66
S1130C7090E0978B868B118E128E138E148E0895AE
S1130C8008950E9439080E9440060E94B400C4EBF3
S1130C90D4E00E94E0002097E1F30E94B404F9CF6D
S1130CA00C94BF13CF92DF92EF92FF920F931F9396
S1130CB0CF93DF936C017A018B01C0E0D0E0CE15B5
S1130CC0DF0581F0D8016D918D01D601ED91FC9184
S1130CD00190F081E02DC6010995892B11F0219630
S1130CE0EECF7E01C701DF91CF911F910F91FF904D
S1130CF0EF90DF90CF9008956115710579F0FB01B5
S1130D0001900020E9F73197AF01461B570BDC0136
S1130D10ED91FC910280F381E02D099480E090E054
S1130D200895DC01ED91FC910190F081E02D09948E
S1130D3067EB71E00C947C060F931F93CF93DF93C2
S1130D40EC010E947C068C01CE010E949806800F63
S1130D50911FDF91CF911F910F9108958F929F92D0
S1130D60AF92BF92EF92FF920F931F93CF93DF93B3
S1130D70CDB7DEB7A1970FB6F894DEBF0FBECDBFD7
S1130D807C01FA01CB0119A2223008F42AE08E0179
S1130D900F5D1F4F822E912CA12CB12CBF01A501F8
S1130DA094010E944A13F901CA01015011096A30E1
S1130DB010F4605D01C0695CD8016C93232B242B73
S1130DC0252B61F7B801C7010E947C06A1960FB6D6
S1130DD0F894DEBF0FBECDBFDF91CF911F910F916D
S1130DE0FF90EF90BF90AF909F908F900895211542
S1130DF0310541F4DC01ED91FC910190F081E02D8D
S1130E00642F09940C94AE060F931F93CF93DF9332
S1130E10EC010E94F7068C01CE010E949806800F17
S1130E20911FDF91CF911F910F910895CF92DF927F
S1130E30EF92FF920F931F93CF93DF932115310508
S1130E4081F4DC01ED91FC910190F081E02D642F9F
S1130E50DF91CF911F910F91FF90EF90DF90CF9092
S1130E6009942A30310501F577FF1DC06A017B0121
S1130E70EC016DE20E9491068C0144275527BA01CA
S1130E804C195D096E097F092AE0CE010E94AE0665
S1130E90800F911FDF91CF911F910F91FF90EF90E1
S1130EA0DF90CF9008952AE0DF91CF911F910F91A9
S1130EB0FF90EF90DF90CF900C94AE069A01AB01B7
S1130EC0770F660B770B0C9416070F931F93CF9332
S1130ED0DF93EC010E945E078C01CE010E9498060C
S1130EE0800F911FDF91CF911F910F9108951F9251
S1130EF00F920FB60F9211242F933F938F939F93CA
S1130F00AF93BF938091A4029091A502A091A602F1
S1130F10B091A7023091A30223E0230F2D3720F4D0
S1130F200196A11DB11D05C026E8230F0296A11D3F
S1130F30B11D2093A3028093A4029093A502A093D1
S1130F40A602B093A7028091A8029091A902A09151
S1130F50AA02B091AB020196A11DB11D8093A80213
S1130F609093A902A093AA02B093AB02BF91AF9150
S1130F709F918F913F912F910F900FBE0F901F90D3
S1130F8018952FB7F8946091A4027091A5028091EE
S1130F90A6029091A7022FBF08953FB7F8948091BD
S1130FA0A8029091A902A091AA02B091AB0226B521
S1130FB0A89B05C02F3F19F00196A11DB11D3FBF8D
S1130FC0BA2FA92F982F8827820F911DA11DB11D1B
S1130FD0BC01CD0142E0660F771F881F991F4A9517
S1130FE0D1F708958F929F92AF92BF92CF92DF92E2
S1130FF0EF92FF926B017C010E94CD074B015C01D3
S1131000C114D104E104F10401F10E94FB100E9417
S1131010CD07DC01CB0188199909AA09BB09883ECF
S11310209340A105B10560F321E0C21AD108E1089B
S1131030F10888EE880E83E0981EA11CB11CC1142F
S1131040D104E104F10419F7DBCFFF90EF90DF90B6
S1131050CF90BF90AF909F908F900895823091056C
S113106038F0880F991F880F991F05970197F1F79A
S11310700895789484B5826084BD84B5816084BD0C
S113108085B5826085BD85B5816085BDEEE6F0E0FD
S1131090808181608083E1E8F0E010828081826059
S11310A08083808181608083E0E8F0E080818160DA
S11310B08083E1EBF0E0808184608083E0EBF0E00A
S11310C0808181608083EAE7F0E0808184608083AE
S11310D08081826080838081816080838081806858
S11310E080831092C1000895833081F028F4813008
S11310F099F08230A1F008958730A9F08830B9F0D2
S11311008430D1F4809180008F7D03C08091800071
S11311108F7780938000089584B58F7702C084B55B
S11311208F7D84BD08958091B0008F7703C0809136
S1131130B0008F7D8093B0000895CF93DF9390E04B
S1131140FC01E853FF4F2491FC01E452FF4F8491CA
S1131150882361F190E0880F991FFC01EC5FFE4F3A
S1131160C591D491FC01E650FF4FA591B491611152
S113117009C09FB7F8948881209582238883EC91D5
S11311802E230BC0623061F49FB7F8948881322F0C
S1131190309583238883EC912E2B2C939FBF06C01C
S11311A08FB7F894E8812E2B28838FBFDF91CF91DE
S11311B008951F93CF93DF93282F30E0F901EC5467
S11311C0FF4F8491F901E853FF4FD491F901E452A0
S11311D0FF4FC491CC23C1F0162F81110E947408D3
S11311E0EC2FF0E0EE0FFF1FE650FF4FA591B491F6
S11311F09FB7F894111104C08C91D095D82302C0E4
S1131200EC91DE2BDC939FBFDF91CF911F9108956A
S1131210CF93DF93282F30E0F901EC54FF4F8491F2
S1131220F901E853FF4FD491F901E452FF4FC491FF
S1131230CC2391F081110E947408EC2FF0E0EE0FA2
S1131240FF1FE051FF4FA591B491EC91ED2381E094
S113125090E021F480E002C080E090E0DF91CF9143
S113126008952091EE023091EF0228173907B9F45E
S11312709091AC028091AD02981789F0E091AC0294
S1131280F0E0E255FD4F80812091AC0230E02F5F09
S11312903F4F2F7333272093AC0290E008958FEFD4
S11312A09FEF08951F93CF93DF93DC015C968D919C
S11312B09C915D97009739F421E030E013963C93BC
S11312C02E9312973BC05196ED91FC9152975096F4
S11312D02C915097322F30951FB75E964C915E97A4
S11312E0742F727041FD6095F8944081772311F05A
S11312F0422B01C043234083EC012197F1F748E0DE
S1131300508160FF02C0522B01C053235083EC0173
S11313102197F1F76695415099F78081772319F069
S11313208323808302C0282B20831FBF5C968D916A
S11313309C915D970197F1F781E090E0DF91CF9167
S11313401F91089508952091EE023091EF0228171D
S1131350390771F49091AC028091AD02981741F075
S1131360E091AC02F0E0E255FD4F808190E00895F9
S11313708FEF9FEF08952091EE023091EF0228172E
S1131380390771F48091AD022091AC0290E0805C49
S11313909F4F821B910960E470E00E943613089508
S11313A080E090E00895E091EE02F091EF02E817FA
S11313B0F90769F4A389B4899C9185898095892367
S11313C08C931092EF021092EE0281E0089580E077
S11313D00895CF93DF93EC018A8D9B8D892BF1F0D7
S11313E08091EE029091EF02C817D907B9F00097E7
S11313F011F00E94D3098E8D8E7F8E8F1092AD02D4
S11314001092AC02D093EF02C093EE02EB89FC89F8
S113141090818D89892B808381E001C080E0DF91F8
S1131420CF9108951F920F920FB60F9211242F930C
S11314303F934F935F936F937F938F939F93AF9358
S1131440BF93EF93FF93E091EE02F091EF02309798
S113145009F451C0968DA685B785858591FF04C092
S11314609C91892329F447C09C91892309F043C0A6
S1131470A389B4899C918589809589238C938689D5
S113148097890197F1F7608D718DA685B78555858C
S113149038E020E0CB010197F1F7822F90E0959599
S11314A08795282F4C91452309F02068315091F7F6
S11314B0868D81FD20958091AD0290E001968F7319
S11314C099273091AC02381749F0A091AD02B0E0F1
S11314D0A255BD4F2C938093AD0203C0868D8160CD
S11314E0868F828D938D0197F1F7A389B4899C919E
S11314F08589892B8C93FF91EF91BF91AF919F9137
S11315008F917F916F915F914F913F912F910F90A8
S11315100FBE0F901F9018951F93CF93DF93EC018C
S1131520162F6E8D6695617081E06827812F0E9469
S1131530D90861E0812F0E949D08812F90E0FC0171
S1131540E853FF4FE491E88BFC01E452FF4FE49130
S1131550F0E0EE0FFF1FE650FF4F859194919A8BB8
S1131560898BDF91CF911F9108951F93CF93DF93C0
S1131570EC01162F60E0812F0E949D088E8D81FD65
S113158004C061E0812F0E94D9081C87812F90E05C
S1131590FC01E853FF4FE491ED87FC01E452FF4F57
S11315A0E491F0E0EE0FFF1FE051FF4F859194911D
S11315B09F878E87DF91CF911F9108951F93CF93BB
S11315C0DF93EC01162F1B821A8288EE93E0A0E0D1
S11315D0B0E08C839D83AE83BF838AEC91E09983D2
S11315E088831F8A1E8A198E188E1B8E1A8E1D8E52
S11315F01C8E8E8D8E7F20FB81F98E8F642FCE0101
S11316000E948C0A612FCE01DF91CF911F910C941F
S1131610B50ACF93DF93EC019A01AB011B8E1A8EAE
S1131620198E188E1F8A1E8A60E079E08DE390E09F
S11316300E946C13F9012430310518F0C901039795
S113164002C081E090E09D8F8C8F6C85663108F03C
S113165069C0C901969587958431910510F0439727
S113166002C081E090E09F8B8E8B369718F0C90101
S1131670059702C081E090E0998F888FC901880F97
S1131680991F280F391F36952795369527952D30A4
S1131690310518F02C50310902C021E030E03B8FB5
S11316A02A8F90916800683050F021E06E3008F481
S11316B020E081E001C0880F2A95EAF701C084E0A8
S11316C0892B809368009C85983038F09E3040F0D8
S11316D0963148F020E030E008C02DE630E005C047
S11316E02BE630E002C02CE630E03C8B2B8B9830AC
S11316F030F481E001C0880F9A95EAF70EC0292FD3
S113170030E09E3018F42850310902C02E503109BF
S113171081E001C0880F2A95EAF78D8B8C8D9D8D11
S11317200197F1F7CE01DF91CF910C94E9090F9362
S11317301F93DC011396EC910E2F10E00930110574
S1131740C0F5F801E65BFF4F0C948B13DC01ED91BF
S1131750FC910084F185E02D29C0DC01ED91FC9120
S11317600284F385E02D22C0DC01ED91FC91048418
S1131770F585E02D1BC0DC01ED91FC910684F78515
S1131780E02D14C0DC01ED91FC910088F189E02D7D
S11317900DC0DC01ED91FC910288F389E02D06C0B7
S11317A0DC01ED91FC910488F589E02D1F910F91E6
S11317B009941F910F910895CF93DF93EC01CB010E
S11317C0BA0126E030E040E050E00E946C13623041
S11317D071058105910559F18CF461157105810537
S11317E09105F1F06130710581059105C1F5E8813C
S11317F0F9810480F581E02D65E02DC06430710528
S11318008105910511F1D4F06530710581059105CB
S113181031F5E881F9810480F581E02D66E01BC093
S1131820E881F9810480F581E02D64E014C0E88149
S1131830F9810480F581E02D61E00DC0E881F98132
S11318400480F581E02D63E006C0E881F98104801D
S1131850F581E02D62E0CE01DF91CF910994DF9113
S1131860CF910895CF93DF93477055276627772745
S1131870FA013197EC01A881B981E730F10520F430
S1131880ED5AFF4F0C948B131496ED91FC91159720
S113189061E029C01496ED91FC91159765E023C091
S11318A01496ED91FC91159764E01DC01496ED918A
S11318B0FC91159766E017C01496ED91FC9115976D
S11318C062E011C01496ED91FC9115976AE00BC08B
S11318D01496ED91FC91159768E005C01496ED916E
S11318E0FC91159769E0DF91CF910994CF92DF9233
S11318F0EF92FF920F931F93CF93DF93EC019B81A1
S1131900943041F0983031F0933031F0963021F03A
S113191012E003C014E001C013E02496E12CF12C82
S1131920C62ED12C01E0C6010E2C02C095958795D8
S11319300A94E2F76C8180FD602789910E94D9089E
S11319408FEFE81AF80AE11670F3DF91CF911F9137
S11319500F91FF90EF90DF90CF900895CF93DF9396
S1131960EC01E881F9810480F581E02D8A818111FF
S113197002C060E001C062E0CE010995E881F9810E
S11319800480F581E02D8A81811102C061E001C0EB
S113199063E0CE0109958CA59DA50E942E08E881DF
S11319A0F9810480F581E02D8A81811102C060E013
S11319B001C062E0CE01DF91CF910994CF93DF9310
S11319C0FC012381222359F1EC0161E084810E940E
S11319D09D0861E08D810E949D088B81843011F007
S11319E0883039F461E08E810E949D0861E08F8126
S11319F006C0833011F0863021F461E08E810E94AC
S1131A009D088FA58F3F59F061E00E949D086EA547
S1131A1081E068278FA5DF91CF910C94D908DF91DD
S1131A20CF910895CF93DF93FC0123812223A9F062
S1131A30EC010190F081E02D0480F581E02D60E05F
S1131A4009958FA58F3F49F061E00E949D086EA51E
S1131A508FA5DF91CF910C94D908DF91CF91089590
S1131A604370552766277727DC01ED91FC910480AC
S1131A70F581E02D423051056105710571F0433067
S1131A8051056105710559F0413051056105710534
S1131A9011F065E005C066E003C06AE001C069E0DA
S1131AA00994CF93DF93EC01CB01BA0123E030E03A
S1131AB040E050E00E946C1361307105810591058E
S1131AC081F0623071058105910591F0672B682BD7
S1131AD0692BC1F4E881F9810480F581E02D64E08B
S1131AE00DC0E881F9810480F581E02D61E006C034
S1131AF0E881F9810480F581E02D62E0CE01DF9177
S1131B00CF910994DF91CF910895437055276627AB
S1131B107727DC01ED91FC910480F581E02D4230C2
S1131B2051056105710571F0433051056105710579
S1131B3059F0413051056105710511F062E005C0AD
S1131B4063E003C061E001C060E00994CF93DF93D8
S1131B50EC0120E030E0A9016C897D898E899F89A0
S1131B600E94691218161CF4E8A9F9A902C0EAA98E
S1131B70FBA9DF91CF9109944F925F926F927F926C
S1131B808F929F92AF92BF92CF92DF92EF92FF9289
S1131B900F931F93CF93DF93EC01C888D988EA8809
S1131BA0FB888C859D85AE85BF85C81AD90AEA0A4B
S1131BB0FB0A6C897D898E899F899B01AC010E94F7
S1131BC06E124B015C016C8D7D8D8E8D9F8D9B0102
S1131BD0AC010E94FD109B01AC01C501B4010E943F
S1131BE06E110E947302C114D104E104F10499F44A
S1131BF062307105810591050CF076C01CA21DA20E
S1131C001EA21FA21C8A1D8A1E8A1F8A1CAA1DAA24
S1131C101EAA1FAAEDC00CA91DA92EA93FA91C1418
S1131C201D041E041F04FCF41016110612061306EC
S1131C304CF46C157D058E059F054CF52A81211108
S1131C4053C025C0011511052105310509F44CC007
S1131C506C157D058E059F050CF046C08A8188238E
S1131C6009F442C036C01016110612061306ECF42D
S1131C700027112798010C191D092E093F09601727
S1131C807107820793071CF42A81222369F19B01BF
S1131C90AC0188279927DC01821B930BA40BB50B9D
S1131CA08CAB9DABAEABBFAB1FC0011511052105BD
S1131CB03105D1F08824992454018C189D08AE086C
S1131CC0BF08681579058A059B0574F48A8181111A
S1131CD00BC030952095109501951F4F2F4F3F4F06
S1131CE00CAB1DAB2EAB3FAB8CA89DA8AEA8BFA878
S1131CF081149104A104B10489F488AD99ADAAAD0D
S1131D00BBAD8CAF9DAFAEAFBFAF81E01C141D0463
S1131D101E041F040CF080E08A833FC0CCACDDAC11
S1131D20EEACFFACA7019601C701B6010E94FD10FD
S1131D302B013C01C501B4010E94E21120E030E016
S1131D4040E850E40E946E1220E030E040E85FE397
S1131D500E94FD109B01AC01C301B2010E946E11EF
S1131D609B01AC01C701B6010E94FC103B016C0150
S1131D70FE01E05CFF4FE080F18002811381970156
S1131D80A8010E946912181614F473018601C70190
S1131D90D8018CAF9DAFAEAFBFAF3FEF831A930AAC
S1131DA0A30AB30A8CAA9DAAAEAABFAACCACDDAC86
S1131DB0EEACFFACC701B6010E947A026CA37DA30E
S1131DC08EA39FA3A701960160E074E284E799E4DF
S1131DD00E946E116C8B7D8B8E8B9F8B2A812111BF
S1131DE007C0DC01CB01B0588C8B9D8BAE8BBF8BB5
S1131DF0DF91CF911F910F91FF90EF90DF90CF90E3
S1131E00BF90AF909F908F907F906F905F904F9016
S1131E1008954F925F926F927F928F929F92AF92AA
S1131E20BF92CF92DF92EF92FF92CF93DF93EC01B8
S1131E306A017B0120E030E0A901C701B6010E94DC
S1131E40691187FF04C0F7FAF094F7F8F0948C8CCA
S1131E509D8CAE8CBF8CA7019601C501B4010E9474
S1131E606911882309F449C06CA97DA98EA99FA989
S1131E700E94E2112B013C01A7019601C501B401A6
S1131E800E946E119B01AC01C301B2010E946E124B
S1131E900E9473026CAB7DAB8EAB9FABA701960126
S1131EA060E070E080E090E40E946E110E94E11214
S1131EB026E53EE04DE25FE30E946E1220E034E24C
S1131EC044E759E40E946E1268AF79AF8AAF9BAFC2
S1131ED0CC8EDD8EEE8EFF8ECE01DF91CF91FF9002
S1131EE0EF90DF90CF90BF90AF909F908F907F90B6
S1131EF06F905F904F900C94BC0DDF91CF91FF9049
S1131F00EF90DF90CF90BF90AF909F908F907F9095
S1131F106F905F904F900895CF92EF920F93CF936D
S1131F20DF93EC018AED91E0998388836B831C86AF
S1131F301D861E861F86188A198A1A8A1B8A1C8A7D
S1131F401D8A1E8A1F8A80E090E0A0E8BFE3888F84
S1131F50998FAA8FBB8F1C8E1D8E1E8E1F8E88A3F9
S1131F6099A3AAA3BBA31CA21DA21EA21FA261E047
S1131F7070E07DA76CA73FEF3FA718A619A61AA685
S1131F801BA64C832D830E83EF821CAA1DAA1EAAB6
S1131F901FAA18AE19AE1AAE1BAE1CAE1DAE1EAEF5
S1131FA01FAEFE01E05CFF4F80839183A283B38365
S1131FB01A82188619861A861B86CC2019F0CE013F
S1131FC00E94DE0C40E050E060E87FE3CE01DF9148
S1131FD0CF910F91EF90CF900C94090FCF92DF9295
S1131FE0EF92FF920F931F93CF93DF93EC016A015B
S1131FF07B0120E030E0A901C701B6010E9469110C
S113200087FF04C0F7FAF094F7F8F094288D398D1F
S11320104A8D5B8DC701B6010E946911882309F4BA
S113202046C0C88ED98EEA8EFB8E8E01005C1F4F8F
S1132030A701960160E074E284E799E40E946E11BE
S1132040F80160837183828393838CA99DA9AEA9CF
S1132050BFA9181619061A061B064CF56C897D894A
S11320608E899F899B01AC010E946E126B017C01D9
S11320706C8D7D8D8E8D9F8D9B01AC010E94FD101A
S11320809B01AC01C701B6010E946E110E9473024C
S11320906CAB7DAB8EAB9FABCE01DF91CF911F912B
S11320A00F91FF90EF90DF90CF900C94BC0DDF91D7
S11320B0CF911F910F91FF90EF90DF90CF900895F3
S11320C0CF92DF92EF92FF92CF93DF93EC016A01FC
S11320D07B0120E030E0A901C701B6010E9469112B
S11320E0882359F0B701A601CE01DF91CF91FF906B
S11320F0EF90DF90CF900C94090FDF91CF91FF9078
S1132100EF90DF90CF9008954F925F926F927F92FD
S1132110AF92BF92CF92DF92EF92FF920F931F93F1
S1132120CF93DF93EC015A018B019A01AB016C89C7
S11321307D898E899F890E946911882309F44CC086
S1132140C88CD98CEA8CFB8C2601370177FA709401
S113215077F87094A3019201B501C8010E94691136
S113216087FD0BC0A7019601B501C8010E94691241
S113217018162CF06501780102C07301620120E099
S113218030E0A901C701B6010E946911811105C09F
S11321901CA21DA21EA21FA21BC0A701960160E0E3
S11321A074E284E799E40E946E119F770E947A0298
S11321B06CA37DA38EA39FA311E020E030E0A901CE
S11321C0C701B6010E94691218160CF010E01A83B8
S11321D0CC8ADD8AEE8AFF8ADF91CF911F910F911D
S11321E0FF90EF90DF90CF90BF90AF907F906F9073
S11321F05F904F90089508955058BB27AA270E94D6
S113220014110C9458120E944A1238F00E94511270
S113221020F039F49F3F19F426F40C9447120EF47D
S1132220E095E7FB0C944112E92F0E94A90258F3B0
S1132230BA17620773078407950720F079F4A6F5A7
S11322400C94CB020EF4E0950B2EBA2FA02D0B01AB
S1132250B90190010C01CA01A0011124FF27591BE7
S113226099F0593F50F4503E68F11A16F040A22FED
S1132270232F342F4427585FF3CF4695379527955E
S1132280A795F0405395C9F77EF41F16BA0B620B5D
S1132290730B840BBAF09150A1F0FF0FBB1F661FA4
S11322A0771F881FC2F70EC0BA0F621F731F841FE7
S11322B048F4879577956795B795F7959E3F08F00D
S11322C0B0CF9395880F08F09927EE0F97958795CF
S11322D008950E941D1208F481E008950E9482115D
S11322E00C9458120E94511258F00E944A1240F065
S11322F029F45F3F29F00C94411251110C94CC0243
S11323000C9447120E94A90268F39923B1F3552350
S113231091F3951B550BBB27AA27621773078407F4
S113232038F09F5F5F4F220F331F441FAA1FA9F38A
S113233035D00E2E3AF0E0E832D091505040E69578
S1132340001CCAF72BD0FE2F29D0660F771F881FD9
S1132350BB1F261737074807AB07B0E809F0BB0BCC
S1132360802DBF01FF2793585F4F3AF09E3F5105E0
S113237078F00C9441120C94CC025F3FE4F3983E45
S1132380D4F3869577956795B795F7959F5FC9F7C9
S1132390880F911D9695879597F90895E1E0660F4A
S11323A0771F881FBB1F621773078407BA0720F0C3
S11323B0621B730B840BBA0BEE1F88F7E09508952C
S11323C0E89409C097FB3EF49095809570956195CB
S11323D07F4F8F4F9F4F9923A9F0F92F96E9BB2781
S11323E09395F695879577956795B795F111F8CFFD
S11323F0FAF4BB0F11F460FF1BC06F5F7F4F8F4F68
S11324009F4F16C0882311F096E911C0772321F05D
S11324109EE8872F762F05C0662371F096E8862FF5
S113242070E060E02AF09A95660F771F881FDAF74C
S1132430880F9695879597F90895990F0008550F79
S1132440AA0BE0E8FEEF16161706E807F907C0F036
S113245012161306E407F50798F0621B730B840B3E
S1132460950B39F40A2661F0232B242B252B21F418
S113247008950A2609F4A140A6958FEF811D811DB8
S1132480089597F99F6780E870E060E008959FEFF2
S113249080EC089500240A941616170618060906F7
S11324A0089500240A9412161306140605060895C6
S11324B0092E0394000C11F4882352F0BB0F40F44E
S11324C0BF2B11F460FF04C06F5F7F4F8F4F9F4F8E
S11324D008950E941D1208F48FEF08950E9481123E
S11324E00C9458120E944A1238F00E94511220F0A3
S11324F0952311F00C9441120C94471211240C945E
S1132500CC020E94A90270F3959FC1F3950F50E08D
S1132510551F629FF001729FBB27F00DB11D639F91
S1132520AA27F00DB11DAA1F649F6627B00DA11D37
S1132530661F829F2227B00DA11D621F739FB00DDD
S1132540A11D621F839FA00D611D221F749F33274D
S1132550A00D611D231F849F600D211D822F762FE6
S11325606A2F11249F5750409AF0F1F088234AF0C3
S1132570EE0FFF1FBB1F661F771F881F915050402F
S1132580A9F79E3F510580F00C9441120C94CC02A3
S11325905F3FE4F3983ED4F3869577956795B795B6
S11325A0F795E7959F5FC1F7FE2B880F911D9695D0
S11325B0879597F9089519F416F40C9447120C941E
S11325C021130E94B102B8F39923C9F3B6F39F57BC
S11325D0550B87FF0E942F130024A0E640EA9001C8
S11325E080585695979528F4805C660F771F881F4E
S11325F020F026173707480730F4621B730B840B4F
S1132600202931294A2BA695179407942025312592
S11326104A2758F7660F771F881F20F026173707B9
S1132620480730F4620B730B840B200D311D411DE0
S1132630A09581F7B901842F9158880F96958795B5
S113264008959F3F31F0915020F4879577956795D1
S1132650B795880F911D9695879597F90895915090
S11326605040660F771F881FD2F7089597FB072EF7
S113267016F4009407D077FD09D00E949C1307FC40
S113268005D03EF4909581959F4F0895709561957E
S11326907F4F0895A1E21A2EAA1BBB1BFD010DC09A
S11326A0AA1FBB1FEE1FFF1FA217B307E407F507FE
S11326B020F0A21BB30BE40BF50B661F771F881FDA
S11326C0991F1A9469F760957095809590959B0170
S11326D0AC01BD01CF010895052E97FB1EF40094B3
S11326E00E94831357FD07D00E944A1307FC03D0AE
S11326F04EF40C94831350954095309521953F4F9B
S11327004F4F5F4F089590958095709561957F4FD9
S11327108F4F9F4F0895EE0FFF1F0590F491E02D0A
S113272009940E94B013A59F900DB49F900DA49F8F
S1132730800D911D11240895AA1BBB1B51E107C0F4
S1132740AA1FBB1FA617B70710F0A61BB70B881F3D
S1132750991F5A95A9F780959095BC01CD010895CC
S1132760A29FB001B39FC001A39F700D811D1124CE
S1132770911DB29F700D811D1124911D08950F9319
S11327801F93CF93DF938230910510F482E090E0A1
S1132790E091F202F091F30220E030E0A0E0B0E03A
S11327A0309719F1408151810281138148175907EB
S11327B0C8F08417950769F4109731F012960C93BA
S11327C0129713961C9327C00093F2021093F302FE
S11327D022C02115310519F04217530718F49A0144
S11327E0BD01EF01DF01F801DBCF21153105F9F05F
S11327F0281B390B2430310580F48A819B816115B3
S1132800710521F0FB019383828304C09093F3024A
S11328108093F202FE01329644C0FE01E20FF31FE0
S11328208193919322503109398328833AC02091AE
S1132830F0023091F102232B41F4209102013091F6
S113284003013093F1022093F002209100013091B2
S113285001012115310541F42DB73EB74091040122
S113286050910501241B350BE091F002F091F10227
S1132870E217F307A0F42E1B3F0B2817390778F053
S1132880AC014E5F5F4F2417350748F04E0F5F1FB2
S11328905093F1024093F0028193919302C0E0E0DF
S11328A0F0E0CF01DF91CF911F910F910895CF9365
S11328B0DF93009709F481C0FC01329713821282DE
S11328C0A091F202B091F302109781F4208131813A
S11328D0820F931F2091F0023091F10228173907DB
S11328E051F5F093F102E093F00267C0ED0120E0AE
S11328F030E0CE17DF0740F44A815B819E01411529
S11329005105F1F0EA01F5CFD383C28340815181AF
S1132910840F951FC817D90759F488819981840FAA
S1132920951F0296918380838A819B8193838283FE
S11329302115310529F4F093F302E093F2023DC02E
S1132940E901FB83EA8349915991C40FD51FEC1720
S1132950FD0761F480819181840F951F0296E9013E
S113296099838883828193819B838A83E0E0F0E06A
S113297012968D919C911397009719F0FD01DC013B
S1132980F7CF8D919C9111979D012E5F3F4F820F40
S1132990931F2091F0023091F1022817390769F44E
S11329A0309729F41092F3021092F20202C01382BB
S11329B01282B093F102A093F002DF91CF910895B7
S11329C010E0C9E8D0E004C0FE010E948B132196F8
S10D29D0CA38D107C9F7F894FFCF05
S11329DA0000F40220007EFF06000100000000EF60
S11329EA5374617274696E672070726F6772616D75
S11329FA20666F7220416C69656E2043616B6500C5
S1132A0A44697374616E6365206465746563746F85
S1132A1A72206F6E00556E61626C6520746F20625D
S1132A2A6567696E3A00312E20506C6561736520C2
S1132A3A7265636865636B2074686520636F6E6E84
S1132A4A656374696F6E2100322E20506C65617360
S1132A5A6520696E736572742053442063617264DD
S1132A6A21004D503320706C61796572206973209E
S1132A7A6F6E6C696E650000000000E304520686FE
S1132A8A04A00492042A050D0A006E616E00696EA0
S1132A9A66006F7666000000000052095206BB0900
S1132AAA3109A309A20900000000120DDE0C760CFC
S1132ABA970BA60DAE0C850D510D300DDC0B320CA7
S9030000FC
