S0110000416C69656E43616B652E73726563B6
S11300000C9462000C948A000C948A000C948A006C
S11300100C948A000C948A000C948A000C948A0034
S11300200C948A000C948A000C948A000C948A0024
S11300300C948A000C948A000C948A000C948A0014
S11300400C9464010C948A000C9441040C94730481
S11300500C948A000C948A000C948A000C948A00F4
S11300600C948A000C948A0000000008000201002D
S1130070000304070000000000000000010204085F
S113008010204080010204081020010204081020FE
S1130090040404040404040402020202020203032A
S11300A003030303000000002300260029000000CE
S11300B00000250028002B00000000002400270079
S11300C02A00A30411241FBECFEFD8E0DEBFCDBFAA
S11300D011E0A0E0B1E0E0E3FDE002C005900D9284
S11300E0A634B107D9F721E0A6E4B1E001C01D921E
S11300F0A63FB207E1F710E0C2E6D0E004C02197C2
S1130100FE010E946F05C136D107C9F70E9455014F
S11301100C9496060C9400000F931F93CF93DF93D7
S1130120182F092F82E090E00E947505EC011883D6
S1130130098361E0812F0E947302CE01DF91CF9188
S11301401F910F91089561E00C94AF0260E00C944C
S1130150AF02EF92FF920F931F93CF93DF93182F69
S1130160092F7B0184E090E00E947505EC011A835D
S11301700B83F982E88261E0812F0E94730260E0C0
S113018088810E947302CE01DF91CF911F910F915C
S1130190FF90EF9008950F931F93CF93DF938C01FB
S11301A0FC01C28161E08C2F0E94AF026AE070E022
S11301B080E090E00E94D30160E08C2F0E94AF02A7
S11301C0F80180810E94DE020197E1F4C0E0D0E0F2
S11301D0F80180810E94DE02892B41F0219661E0C2
S11301E070E080E090E00E94D301F2CF22E22C9FE5
S11301F0C0012D9F900D112460ED77E00E9425052C
S1130200CB0102C08FEF9FEFDF91CF911F910F9130
S113021008950E9408039093F1018093F00160E82F
S113022075E20E940B0366E071E08091F001909109
S1130230F1010E94130385E090E00E948C009093EA
S1130240EF018093EE0169E070E088E090E00E94A5
S1130250A9009093ED018093EC01E091EE01F091FF
S1130260EF01808191810C94A6008091EC01909122
S1130270ED010E94CB001816190674F4E091EE010A
S1130280F091EF01808191810E94A30060ED77E0FD
S113029080E090E00E94D301E091EE01F091EF0143
S11302A0808191810C94A60008950E940F020E94FF
S11302B054010E940901C4E4D3E00E94350120974F
S11302C0E1F30E944403F9CF1F920F920FB60F92ED
S11302D011242F933F938F939F93AF93BF93809158
S11302E0470190914801A0914901B0914A01309190
S11302F0460123E0230F2D3720F40196A11DB11DE3
S113030005C026E8230F0296A11DB11D20934601C6
S11303108093470190934801A0934901B0934A0107
S113032080914B0190914C01A0914D01B0914E01EF
S11303300196A11DB11D80934B0190934C01A09394
S11303404D01B0934E01BF91AF919F918F913F9119
S11303502F910F900FBE0F901F9018953FB7F894F0
S113036080914B0190914C01A0914D01B0914E01AF
S113037026B5A89B05C02F3F19F00196A11DB11DFC
S11303803FBFBA2FA92F982F8827820F911DA11D37
S1130390B11DBC01CD0142E0660F771F881F991F74
S11303A04A95D1F708958F929F92AF92BF92CF92C0
S11303B0DF92EF92FF926B017C010E94AE014B0130
S11303C05C01C114D104E104F10401F10E940703AA
S11303D00E94AE01DC01CB0188199909AA09BB0965
S11303E0883E9340A105B10560F321E0C21AD1080B
S11303F0E108F10888EE880E83E0981EA11CB11C68
S1130400C114D104E104F10419F7DBCFFF90EF909C
S1130410DF90CF90BF90AF909F908F900895789485
S113042084B5826084BD84B5816084BD85B58260F5
S113043085BD85B5816085BDEEE6F0E08081816093
S11304408083E1E8F0E01082808182608083808193
S113045081608083E0E8F0E0808181608083E1EB6B
S1130460F0E0808184608083E0EBF0E08081816053
S11304708083EAE7F0E08081846080838081826009
S113048080838081816080838081806880831092F2
S1130490C1000895833081F028F4813099F08230CE
S11304A0A1F008958730A9F08830B9F08430D1F4F0
S11304B0809180008F7D03C0809180008F7780932E
S11304C08000089584B58F7702C084B58F7D84BD84
S11304D008958091B0008F7703C08091B0008F7D24
S11304E08093B0000895CF93DF9390E0FC01E4582B
S11304F0FF4F2491FC01E057FF4F8491882361F161
S113050090E0880F991FFC01E854FF4FC591D491E6
S1130510FC01E255FF4FA591B491611109C09FB749
S1130520F8948881209582238883EC912E230BC034
S1130530623061F49FB7F8948881322F3095832319
S11305408883EC912E2B2C939FBF06C08FB7F89411
S1130550E8812E2B28838FBFDF91CF9108951F93BD
S1130560CF93DF93282F30E0F901E859FF4F8491AE
S1130570F901E458FF4FD491F901E057FF4FC491BA
S1130580CC23C1F0162F81110E944A02EC2FF0E017
S1130590EE0FFF1FE255FF4FA591B4919FB7F8945A
S11305A0111104C08C91D095D82302C0EC91DE2B9C
S11305B0DC939FBFDF91CF911F910895CF93DF9379
S11305C0282F30E0F901E859FF4F8491F901E458EC
S11305D0FF4FD491F901E057FF4FC491CC2391F020
S11305E081110E944A02EC2FF0E0EE0FFF1FEC5540
S11305F0FF4FA591B491EC91ED2381E090E021F4BB
S113060080E002C080E090E0DF91CF9108950895EA
S11306108FE491E00895AB01770F660B770B26E02A
S11306200E94DC0308950E9413050895FC01918D36
S1130630228D892F90E0805C9F4F821B91098F73DC
S113064099270895FC01918D828D981731F0828D40
S1130650E80FF11D858D90E008958FEF9FEF0895C9
S1130660FC01918D828D981761F0828DDF01A80FB6
S1130670B11D5D968C91928D9F5F9F73928F90E0D8
S113068008958FEF9FEF089589E994E0892B49F04D
S113069080E090E0892B29F00E94990481110C9448
S11306A000000895FC01848DDF01A80FB11DA35A39
S11306B0BF4F2C91848D90E001968F739927848F7E
S11306C0A689B7892C93A089B1898C9180648C9375
S11306D0938D848D981306C00288F389E02D808160
S11306E08F7D80830895EF92FF920F931F93CF9392
S11306F0DF93EC0181E0888F9B8D8C8D981305C06E
S1130700E889F989808185FD24C0F62E0B8D10E0DF
S11307100F5F1F4F0F731127E02E8C8DE8120CC052
S11307200FB607FCFACFE889F989808185FFF5CFF8
S1130730CE010E945203F1CF8B8DFE01E80FF11D13
S1130740E35AFF4FF0820B8FEA89FB898081806234
S113075007C0EE89FF896083E889F9898081806414
S1130760808381E090E0DF91CF911F910F91FF9002
S1130770EF900895CF93DF93EC01888D8823C9F01F
S1130780EA89FB89808185FD05C0A889B9898C9196
S113079086FD0FC00FB607FCF5CF808185FFF2CF31
S11307A0A889B9898C9185FFEDCFCE010E945203AF
S11307B0E7CFDF91CF910895CF92DF92EF92FF922E
S11307C01F93CF93DF93EC016A017B01122FE88919
S11307D0F98982E080834115514E61057105B1F0BC
S11307E060E079E08DE390E0A70196010E9439056D
S11307F0DA01C9010197A109B109B695A7959795A1
S113080087959C01211580E13807A8F0E889F989CA
S1130810108260E874E88EE190E0A70196010E94DE
S11308203905DA01C9010197A109B109B695A7955E
S1130830979587959C01EC85FD853083EE85FF8532
S11308402083188EEC89FD891083EA89FB898081D5
S113085080618083EA89FB89808188608083EA895A
S1130860FB89808180688083EA89FB8980818F7D10
S11308708083DF91CF911F91FF90EF90DF90CF9015
S113088008951F920F920FB60F9211242F938F93F6
S11308909F93EF93FF93E0915F01F091600180815A
S11308A0E0916501F091660182FD12C09081809112
S11308B068018F5F8F7320916901821751F0E09175
S11308C06801F0E0E15BFE4F958F8093680101C001
S11308D08081FF91EF919F918F912F910F900FBE87
S11308E00F901F9018951F920F920FB60F9211241C
S11308F02F933F934F935F936F937F938F939F9324
S1130900AF93BF93EF93FF938FE491E00E94520360
S1130910FF91EF91BF91AF919F918F917F916F91D3
S11309205F914F913F912F910F900FBE0F901F90A9
S113093018958FE491E00E94160321E0892B09F4B5
S113094020E0822F0895EFE4F1E01382128288EE12
S113095093E0A0E0B0E084839583A683B7838AE222
S113096091E09183808385EC90E09587848784EC83
S113097090E09787868780EC90E0918B808B81EC68
S113098090E0938B828B82EC90E0958B848B86EC49
S113099090E0978B868B118E128E138E148E089591
S11309A0CF92DF92EF92FF920F931F93CF93DF9337
S11309B06C017A018B01C0E0D0E0CE15DF0581F037
S11309C0D8016D918D01D601ED91FC910190F081DA
S11309D0E02DC6010995892B11F02196EECF7E01F9
S11309E0C701DF91CF911F910F91FF90EF90DF909E
S11309F0CF9008956115710579F0FB0101900020F5
S1130A00E9F73197AF01461B570BDC01ED91FC91DF
S1130A100280F381E02D099480E090E0089566E37C
S1130A2071E00C94FA040F931F93CF93DF93EC01BE
S1130A300E94FA048C01CE010E940F05800F911FC1
S1130A40DF91CF911F910F91089597FB072E16F414
S1130A50009407D077FD09D00E945B0507FC05D000
S1130A603EF4909581959F4F0895709561957F4FC1
S1130A700895A1E21A2EAA1BBB1BFD010DC0AA1FDB
S1130A80BB1FEE1FFF1FA217B307E407F50720F0F3
S1130A90A21BB30BE40BF50B661F771F881F991F6E
S1130AA01A9469F760957095809590959B01AC01B7
S1130AB0BD01CF010895AA1BBB1B51E107C0AA1FAA
S1130AC0BB1FA617B70710F0A61BB70B881F991FEB
S1130AD05A95A9F780959095BC01CD010895EE0F24
S1130AE0FF1F0590F491E02D09940F931F93CF936A
S1130AF0DF938230910510F482E090E0E091F401FC
S1130B00F091F50120E030E0A0E0B0E0309719F179
S1130B10408151810281138148175907C8F0841715
S1130B20950769F4109731F012960C931297139667
S1130B301C9327C00093F4011093F50122C02115E2
S1130B40310519F04217530718F49A01BD01EF015A
S1130B50DF01F801DBCF21153105F9F0281B390B32
S1130B602430310580F48A819B816115710521F05F
S1130B70FB019383828304C09093F5018093F40175
S1130B80FE01329644C0FE01E20FF31F819391935C
S1130B9022503109398328833AC02091F2013091DF
S1130BA0F301232B41F4209102013091030130938E
S1130BB0F3012093F20120910001309101012115EC
S1130BC0310541F42DB73EB7409104015091050120
S1130BD0241B350BE091F201F091F301E217F307C6
S1130BE0A0F42E1B3F0B2817390778F0AC014E5F99
S1130BF05F4F2417350748F04E0F5F1F5093F301E2
S1130C004093F2018193919302C0E0E0F0E0CF01C0
S1130C10DF91CF911F910F910895CF93DF930097A8
S1130C2009F481C0FC01329713821282A091F4016D
S1130C30B091F501109781F420813181820F931FC7
S1130C402091F2013091F3012817390751F5F093FF
S1130C50F301E093F20167C0ED0120E030E0CE172C
S1130C60DF0740F44A815B819E0141155105F1F093
S1130C70EA01F5CFD383C28340815181840F951F4C
S1130C80C817D90759F488819981840F951F029652
S1130C90918380838A819B8193838283211531058B
S1130CA029F4F093F501E093F4013DC0E901FB83DD
S1130CB0EA8349915991C40FD51FEC17FD0761F4DC
S1130CC080819181840F951F0296E901998388831D
S1130CD0828193819B838A83E0E0F0E012968D9178
S1130CE09C911397009719F0FD01DC01F7CF8D91CA
S1130CF09C9111979D012E5F3F4F820F931F20916E
S1130D00F2013091F3012817390769F4309729F477
S1130D101092F5011092F40102C013821282B09372
S1130D20F301A093F201DF91CF910895F894FFCFDE
S1130D300000F60120005374617274696E672070BC
S1130D40726F6772616D20666F7220416C69656EA7
S1130D502043616B6500000000007303D004160398
S1130D6030032203BA030D0A006E616E00696E66D9
S1090D70006F766600002E
S9030000FC
