:100000000C9461000C947E000C947E000C947E0095
:100010000C947E000C947E000C947E000C947E0068
:100020000C947E000C947E000C947E000C947E0058
:100030000C947E000C947E000C947E000C947E0048
:100040000C9446010C947E000C947E000C947E006F
:100050000C947E000C947E000C947E000C947E0028
:100060000C947E000C947E00000000080002010049
:100070000003040700000000000000000102040863
:100080001020408001020408102001020408102002
:10009000040404040404040402020202020203032E
:1000A00003030303000000002300260029000000D2
:1000B0000000250028002B0000000000240027007D
:1000C0002A0011241FBECFEFD8E0DEBFCDBF21E054
:1000D000A6E0B1E001C01D92A731B207E1F711E03F
:1000E000A0E0B1E0EAE6F8E002C005900D92A6308B
:1000F000B107D9F70E9437010C9433040C94000027
:100100000F931F93CF93DF93182F092F82E090E076
:100110000E941203EC011883098361E0812F0E9481
:100120005502CE01DF91CF911F910F91089561E0AB
:100130000C94910260E00C949102EF92FF920F9365
:100140001F93CF93DF93182F092F7B0184E090E05A
:100150000E941203EC011A830B83F982E88261E0AA
:10016000812F0E94550260E088810E945502CE01D5
:10017000DF91CF911F910F91FF90EF9008950F9312
:100180001F93CF93DF938C01FC01C28161E08C2F20
:100190000E9491026AE070E080E090E00E94B50168
:1001A00060E08C2F0E949102F80180810E94C002C1
:1001B0000197E1F4C0E0D0E0F80180810E94C00224
:1001C000892B41F0219661E070E080E090E00E9490
:1001D000B501F2CF22E22C9FC0012D9F900D11247A
:1001E00060ED77E00E94EA02CB0102C08FEF9FEF43
:1001F000DF91CF911F910F91089585E090E00E94CB
:100200008000909312018093110169E070E088E012
:1002100090E00E949D009093100180930F01E09167
:100220001101F0911201808191810C949A008091CA
:100230000F01909110010E94BF001816190674F466
:10024000E0911101F0911201808191810E9497004B
:1002500060ED77E080E090E00E94B501E09111014F
:10026000F0911201808191810C949A0008950E946E
:10027000F1010E9436010E94FD00C0E0D0E00E9422
:1002800017012097E1F30E940000F9CF1F920F920F
:100290000FB60F9211242F933F938F939F93AF9399
:1002A000BF938091070190910801A0910901B0913D
:1002B0000A013091060123E0230F2D3720F4019627
:1002C000A11DB11D05C026E8230F0296A11DB11D79
:1002D000209306018093070190930801A0930901E0
:1002E000B0930A0180910B0190910C01A0910D0136
:1002F000B0910E010196A11DB11D80930B01909349
:100300000C01A0930D01B0930E01BF91AF919F918D
:100310008F913F912F910F900FBE0F901F901895C6
:100320003FB7F89480910B0190910C01A0910D01C1
:10033000B0910E0126B5A89B05C02F3F19F001967C
:10034000A11DB11D3FBFBA2FA92F982F8827820F5B
:10035000911DA11DB11DBC01CD0142E0660F771FAB
:10036000881F991F4A95D1F708958F929F92AF9257
:10037000BF92CF92DF92EF92FF926B017C010E94BD
:1003800090014B015C01C114D104E104F10401F1BD
:100390000E94E9020E949001DC01CB0188199909B1
:1003A000AA09BB09883E9340A105B10560F321E08D
:1003B000C21AD108E108F10888EE880E83E0981E81
:1003C000A11CB11CC114D104E104F10419F7DBCF65
:1003D000FF90EF90DF90CF90BF90AF909F908F9065
:1003E0000895789484B5826084BD84B5816084BDAD
:1003F00085B5826085BD85B5816085BDEEE6F0E09E
:10040000808181608083E1E8F0E0108280818260F9
:100410008083808181608083E0E8F0E0808181607A
:100420008083E1EBF0E0808184608083E0EBF0E0AA
:10043000808181608083EAE7F0E08081846080834E
:1004400080818260808380818160808380818068F8
:1004500080831092C1000895833081F028F48130A8
:1004600099F08230A1F008958730A9F08830B9F072
:100470008430D1F4809180008F7D03C08091800012
:100480008F7780938000089584B58F7702C084B5FC
:100490008F7D84BD08958091B0008F7703C08091D7
:1004A000B0008F7D8093B0000895CF93DF9390E0EC
:1004B000FC01E458FF4F2491FC01E057FF4F849169
:1004C000882361F190E0880F991FFC01E854FF4FE9
:1004D000C591D491FC01E255FF4FA591B4916111F2
:1004E00009C09FB7F8948881209582238883EC9176
:1004F0002E230BC0623061F49FB7F8948881322FAD
:10050000309583238883EC912E2B2C939FBF06C0BC
:100510008FB7F894E8812E2B28838FBFDF91CF917E
:1005200008951F93CF93DF93282F30E0F901E85906
:10053000FF4F8491F901E458FF4FD491F901E0573E
:10054000FF4FC491CC23C1F0162F81110E942C02C1
:10055000EC2FF0E0EE0FFF1FE255FF4FA591B49195
:100560009FB7F894111104C08C91D095D82302C084
:10057000EC91DE2BDC939FBFDF91CF911F9108950B
:10058000CF93DF93282F30E0F901E859FF4F849192
:10059000F901E458FF4FD491F901E057FF4FC4919E
:1005A000CC2391F081110E942C02EC2FF0E0EE0F91
:1005B000FF1FEC55FF4FA591B491EC91ED2381E025
:1005C00090E021F480E002C080E090E0DF91CF91E4
:1005D0000895089597FB072E16F4009407D077FD31
:1005E00009D00E94FE0207FC05D03EF4909581954B
:1005F0009F4F0895709561957F4F0895AA1BBB1B6F
:1006000051E107C0AA1FBB1FA617B70710F0A61B12
:10061000B70B881F991F5A95A9F780959095BC0133
:10062000CD0108950F931F93CF93DF9382309105EF
:1006300010F482E090E0E0911501F091160120E0C5
:1006400030E0A0E0B0E0309719F1408151810281A3
:10065000138148175907C8F08417950769F4109754
:1006600031F012960C93129713961C9327C00093A7
:1006700015011093160122C02115310519F04217FA
:10068000530718F49A01BD01EF01DF01F801DBCF38
:1006900021153105F9F0281B390B2430310580F480
:1006A0008A819B816115710521F0FB01938382830F
:1006B00004C09093160180931501FE01329644C048
:1006C000FE01E20FF31F8193919322503109398388
:1006D00028833AC02091130130911401232B41F457
:1006E00020910201309103013093140120931301F2
:1006F00020910001309101012115310541F42DB700
:100700003EB74091040150910501241B350BE09147
:100710001301F0911401E217F307A0F42E1B3F0B15
:100720002817390778F0AC014E5F5F4F2417350763
:1007300048F04E0F5F1F50931401409313018193B3
:10074000919302C0E0E0F0E0CF01DF91CF911F91E3
:100750000F910895CF93DF93009709F481C0FC01B6
:10076000329713821282A0911501B0911601109751
:1007700081F420813181820F931F209113013091E8
:1007800014012817390751F5F0931401E093130170
:1007900067C0ED0120E030E0CE17DF0740F44A816A
:1007A0005B819E0141155105F1F0EA01F5CFD3833C
:1007B000C28340815181840F951FC817D90759F40E
:1007C00088819981840F951F0296918380838A8105
:1007D0009B81938382832115310529F4F0931601BF
:1007E000E09315013DC0E901FB83EA8349915991EA
:1007F000C40FD51FEC17FD0761F480819181840F30
:10080000951F0296E90199838883828193819B8356
:100810008A83E0E0F0E012968D919C911397009707
:1008200019F0FD01DC01F7CF8D919C9111979D018D
:100830002E5F3F4F820F931F2091130130911401BF
:100840002817390769F4309729F41092160110928D
:10085000150102C013821282B0931401A0931301F8
:0A086000DF91CF910895F894FFCFC7
:06086A0000001701200050
:00000001FF
