:100000000C9479000C94A1000C94A1000C94A1050F
:100010000C94A1050C94A1050C94A1000C94A100D2
:100020000C94A1000C94A1000C94A1000C94A100CC
:100030000C94A1000C94A1000C94A1000C94A100BC
:100040000C94A7020C94A1000C94A1000C94A100A4
:100050000C94A1000C94A1000C94A1000C94A1009C
:100060000C94A1000C94A10063076A077807570756
:1000700078075C0771078A07780778077807780799
:1000800078077807780778077C0778077807780774
:100090007807780700000008000201000003040749
:1000A0000000000000000000010204081020408051
:1000B00001020408102001020408102004040404B2
:1000C0000404040402020202020203030303030302
:1000D0000000000023002600290000000000250089
:1000E00028002B0000000000240027002A000A013D
:1000F000360111241FBECFEFD8E0DEBFCDBF11E027
:10010000A0E0B1E0E0E7F5E102C005900D92A03279
:10011000B107D9F721E0A0E2B1E001C01D92A238F9
:10012000B207E1F710E0C8E7D0E004C02197FE0174
:100130000E945609C737D107C9F70E9496020C944E
:10014000AB0A0C940000CF93DF938CE290E00E9406
:10015000A502EC014BE050E06AE070E00E94390239
:10016000D0932A01C093290168EE73E080E090E00B
:100170000E9422038FE291E00E94470162E08CE03E
:10018000DF91CF910C942C048BE291E00E946E01E0
:100190000197C197D8F58FE291E00E9442014AEFA2
:1001A00050E060E082E291E00E94B10168EB7BE008
:1001B00080E090E00E94220360E082E291E00E94F1
:1001C000C20140E060E082E291E00E94D4014AEF87
:1001D00050E060E082E291E00E94B10180E291E0B3
:1001E0000E949102892B39F06AE070E080E090E093
:1001F0000E942203F3CF60E082E291E00E94C201FC
:1002000060ED77E080E090E00E9422038FE291E0D1
:100210000C944701CF93DF9364E070E08FE291E0AC
:100220000E943A0146E050E067E070E08BE291E026
:100230000E944C0186E090E00E94A502EC0125E0BE
:1002400030E048E050E069E070E00E94A90140E041
:1002500050E0BE0182E291E00E9417026CE070E083
:1002600080E291E0DF91CF910C948A028FE291E0DD
:100270000C944101FC01862F6083718361E00C9432
:100280002C04089561E0FC0180810C94680460E016
:10029000FC0180810C946804CF93DF93EC01862FDE
:1002A000688379835B834A8360E00E942C0461E069
:1002B0008A81DF91CF910C942C04CF93DF93EC01D2
:1002C00061E08A810E9468048AE090E00E945E03F7
:1002D00060E08A81DF91CF910C946804CF92DF9225
:1002E000EF92FF92CF93DF93EC010E945D01888132
:1002F0000E949704019729F081E090E00E945E033C
:10030000F6CF0E94FD026B017C0188810E94970458
:10031000892B29F081E090E00E945E03F6CF0E94D5
:10032000FD029B01AC012C193D094E095F09A2E2B7
:10033000B0E00E945C0920ED37E040E050E00E9410
:100340001509C901DF91CF91FF90EF90DF90CF9019
:100350000895FC0175836483518340833383228332
:100360000895DC01611103C0ED91FC9104C0129667
:10037000ED91FC911397309721F0BA0184810C9490
:10038000A4030895DC01611103C0ED91FC9104C048
:100390001296ED91FC911397309729F060E070E090
:1003A00084810C94A4030895CF93DF93FC0184818E
:1003B0008417E1F04483611103C0C081D18102C080
:1003C000C281D381209791F0411106C061E08881FC
:1003D0000E94680460E005C060E088810E946804B3
:1003E00061E08A81DF91CF910C946804DF91CF9115
:1003F0000895CF93DF93EB0161E08C810E942C0480
:1004000061E088810E942C0461E08A810E942C04B2
:1004100060E070E08C810E94A40360E088810E940B
:10042000680461E08A81DF91CF910C946804CF93D6
:10043000DF93EC01798368835B834A8381E08C835B
:100440001E821D826115710519F0CE010E94F9010D
:100450006A817B816115710529F0CE01DF91CF9111
:100460000C94F901DF91CF9108956EE106960C94FA
:100470008108EF92FF920F931F93CF93DF93EC01CC
:100480008C010A5F1F4F84EF91E0A0E0B0E08C8701
:100490009D87AE87BF878AE0E6E0F1E0DE015A96ED
:1004A00001900D928A95E1F71CA282E08DA31AA615
:1004B0001BA6798368835B834A838FE190E00E9467
:1004C000A5027C0120E04A8168810E946D06FD82C0
:1004D000EC8240E855E260E070E0C7010E949806B7
:1004E0006C817D8141E0C8010E949908811101C0A1
:1004F000FFCF60E0C8010E94860862E0C8010E9448
:100500008B08CE01DF91CF911F910F91FF90EF905B
:100510000C943502FC01862F6083718362E00C9499
:100520002C04FC0180810C94970408950E946903B7
:100530000E9495020E94A300C0E0D0E00E94C40087
:100540002097E1F30E940000F9CF0C948A091F92D2
:100550000F920FB60F9211242F933F938F939F9377
:10056000AF93BF938091320190913301A0913401F8
:10057000B09135013091310123E0230F2D3720F464
:100580000196A11DB11D05C026E8230F0296A11DED
:10059000B11D209331018093320190933301A093D8
:1005A0003401B09335018091360190913701A091CB
:1005B0003801B09139010196A11DB11D809336011A
:1005C00090933701A0933801B0933901BF91AF9157
:1005D0009F918F913F912F910F900FBE0F901F9081
:1005E00018952FB7F8946091320170913301809182
:1005F0003401909135012FBF08953FB7F894809151
:10060000360190913701A0913801B091390126B59A
:10061000A89B05C02F3F19F00196A11DB11D3FBF3A
:10062000BA2FA92F982F8827820F911DA11DB11DC8
:10063000BC01CD0142E0660F771F881F991F4A95C4
:10064000D1F708958F929F92AF92BF92CF92DF928F
:10065000EF92FF926B017C010E94FD024B015C0155
:10066000C114D104E104F10401F10E94D6080E94F2
:10067000FD02DC01CB0188199909AA09BB09883E52
:100680009340A105B10560F321E0C21AD108E10849
:10069000F10888EE880E83E0981EA11CB11CC114DD
:1006A000D104E104F10419F7DBCFFF90EF90DF9064
:1006B000CF90BF90AF909F908F900895823091051A
:1006C00038F0880F991F880F991F05970197F1F748
:1006D0000895789484B5826084BD84B5816084BDBA
:1006E00085B5826085BD85B5816085BDEEE6F0E0AB
:1006F000808181608083E1E8F0E010828081826007
:100700008083808181608083E0E8F0E08081816087
:100710008083E1EBF0E0808184608083E0EBF0E0B7
:10072000808181608083EAE7F0E08081846080835B
:100730008081826080838081816080838081806805
:1007400080831092C10008951F93CF93DF93182FD9
:10075000EB0161E00E942C04209711F460E004C0DA
:10076000CF3FD10539F461E0812FDF91CF911F9107
:100770000C946804E12FF0E0EC56FF4FE491E33075
:10078000F9F048F4E130B9F0E230A1F584B58062C7
:1007900084BDC8BD34C0E730E9F0E83019F1E43079
:1007A00049F580918000806280938000D0938B0017
:1007B000C0938A0024C084B5806884BDC7BD1FC0B3
:1007C00080918000806880938000D0938900C093DE
:1007D000880015C08091B00080688093B000C093FD
:1007E000B3000DC08091B00080628093B000C093D0
:1007F000B40005C0C038D1050CF0B5CFAFCFDF9144
:10080000CF911F910895833081F028F4813099F0C1
:100810008230A1F008958730A9F08830B9F0843093
:10082000D1F4809180008F7D03C0809180008F770C
:1008300080938000089584B58F7702C084B58F7D42
:1008400084BD08958091B0008F7703C08091B0007F
:100850008F7D8093B0000895CF93DF9390E0FC01EB
:10086000E855FF4F2491FC01E454FF4F8491882305
:1008700061F190E0880F991FFC01EC51FF4FC59189
:10088000D491FC01E652FF4FA591B491611109C0CA
:100890009FB7F8948881209582238883EC912E233A
:1008A0000BC0623061F49FB7F8948881322F309585
:1008B00083238883EC912E2B2C939FBF06C08FB788
:1008C000F894E8812E2B28838FBFDF91CF91089574
:1008D0001F93CF93DF93282F30E0F901EC56FF4FA1
:1008E0008491F901E855FF4FD491F901E454FF4F89
:1008F000C491CC23C1F0162F81110E940304EC2F68
:10090000F0E0EE0FFF1FE652FF4FA591B4919FB7A5
:10091000F894111104C08C91D095D82302C0EC91A9
:10092000DE2BDC939FBFDF91CF911F910895CF9372
:10093000DF93282F30E0F901EC56FF4F8491F90145
:10094000E855FF4FD491F901E454FF4FC491CC23F3
:1009500091F081110E940304EC2FF0E0EE0FFF1FD5
:10096000E053FF4FA591B491EC91ED2381E090E02D
:1009700021F480E002C080E090E0DF91CF91089503
:1009800020917C0130917D0128173907B9F49091AD
:100990003A0180913B01981789F0E0913A01F0E02B
:1009A000E45CFE4F808120913A0130E02F5F3F4FA1
:1009B0002F73332720933A0190E008958FEF9FEF34
:1009C00008951F93CF93DF93DC015C968D919C91EA
:1009D0005D97009739F421E030E013963C932E9315
:1009E00012973BC05196ED91FC91529750962C91E5
:1009F0005097322F30951FB75E964C915E97742FAB
:100A0000727041FD6095F8944081772311F0422B7C
:100A100001C043234083EC012197F1F748E0508166
:100A200060FF02C0522B01C053235083EC01219779
:100A3000F1F76695415099F78081772319F0832368
:100A4000808302C0282B20831FBF5C968D919C91D0
:100A50005D970197F1F781E090E0DF91CF911F91D1
:100A60000895089520917C0130917D012817390760
:100A700071F490913A0180913B01981741F0E09117
:100A80003A01F0E0E45CFE4F808190E008958FEF42
:100A90009FEF089520917C0130917D01281739073F
:100AA00071F480913B0120913A0190E0805C9F4F6E
:100AB000821B910960E470E00E940109089580E0C2
:100AC00090E00895E0917C01F0917D01E817F9072D
:100AD00069F4A389B4899C918589809589238C9335
:100AE00010927D0110927C0181E0089580E00895CC
:100AF000CF93DF93EC018A8D9B8D892BF1F0809150
:100B00007C0190917D01C817D907B9F0009711F0C9
:100B10000E9462058E8D8E7F8E8F10923B01109207
:100B20003A01D0937D01C0937C01EB89FC899081CF
:100B30008D89892B808381E001C080E0DF91CF9196
:100B400008951F920F920FB60F9211242F933F9387
:100B50004F935F936F937F938F939F93AF93BF93C5
:100B6000EF93FF93E0917C01F0917D01309709F4C0
:100B700051C0968DA685B785858591FF04C09C914F
:100B8000892329F447C09C91892309F043C0A38994
:100B9000B4899C918589809589238C9386899789CE
:100BA0000197F1F7608D718DA685B785558538E081
:100BB00020E0CB010197F1F7822F90E09595879582
:100BC000282F4C91452309F02068315091F7868DEC
:100BD00081FD209580913B0190E001968F739927CC
:100BE00030913A01381749F0A0913B01B0E0A45C84
:100BF000BE4F2C9380933B0103C0868D8160868F0E
:100C0000828D938D0197F1F7A389B4899C91858991
:100C1000892B8C93FF91EF91BF91AF919F918F9111
:100C20007F916F915F914F913F912F910F900FBEE8
:100C30000F901F9018951F93CF93DF93EC01162F01
:100C40006E8D6695617081E06827812F0E9468042F
:100C500061E0812F0E942C04812F90E0FC01E85577
:100C6000FF4FE491E88BFC01E454FF4FE491F0E086
:100C7000EE0FFF1FE652FF4F859194919A8B898B5F
:100C8000DF91CF911F9108951F93CF93DF93EC01D4
:100C9000162F60E0812F0E942C048E8D81FD04C0F0
:100CA00061E0812F0E9468041C87812F90E0FC0185
:100CB000E855FF4FE491ED87FC01E454FF4FE491C8
:100CC000F0E0EE0FFF1FE053FF4F859194919F8757
:100CD0008E87DF91CF911F9108951F93CF93DF935C
:100CE000EC01162F1B821A8288EE93E0A0E0B0E0A0
:100CF0008C839D83AE83BF8384E191E09983888355
:100D00001F8A1E8A198E188E1B8E1A8E1D8E1C8E9F
:100D10008E8D8E7F20FB81F98E8F642FCE010E94F5
:100D20001B06612FCE01DF91CF911F910C944406D9
:100D3000CF93DF93EC019A01AB011B8E1A8E198EB3
:100D4000188E1F8A1E8A60E079E08DE390E00E9491
:100D50003709F9012430310518F0C901039702C0A1
:100D600081E090E09D8F8C8F6C85663108F069C0C2
:100D7000C901969587958431910510F0439702C07B
:100D800081E090E09F8B8E8B369718F0C901059714
:100D900002C081E090E0998F888FC901880F991F68
:100DA000280F391F36952795369527952D30310513
:100DB00018F02C50310902C021E030E03B8F2A8F1F
:100DC00090916800683050F021E06E3008F420E027
:100DD00081E001C0880F2A95EAF701C084E0892BE1
:100DE000809368009C85983038F09E3040F09631B2
:100DF00048F020E030E008C02DE630E005C02BE6EA
:100E000030E002C02CE630E03C8B2B8B983030F485
:100E100081E001C0880F9A95EAF70EC0292F30E0D3
:100E20009E3018F42850310902C02E50310981E05B
:100E300001C0880F2A95EAF78D8B8C8D9D8D0197C7
:100E4000F1F7CE01DF91CF910C947805FB0131963B
:100E5000695F7F4F80E090E02191820F911DE6173E
:100E6000F707D1F79195819591090895DC011D96B9
:100E7000EC911D979196EC9391971F968C911F97EB
:100E800090E0982F882750962C915097820F911DB3
:100E900093969C938E9392974E2F50E0FA01FA9777
:100EA000E631F10548F5EC5CFF4F0C9456095E966F
:100EB0001C925E9785E019C081FF2EC05E961C9241
:100EC0005E9784E012C081FF27C05E961C925E97F9
:100ED00082E00BC081FF20C05E961C925E9783E08B
:100EE00004C05E961C925E9786E090968C939097D5
:100EF00081E094968C9308955E961C925E9781E0B3
:100F000090968C93909793961C921E92929794969B
:100F10008C93949795961C920895CF93DF93EC0150
:100F2000BC01665F7F4F0E942607298930E0322F7F
:100F300022274A89240F311D41E02817390709F07B
:100F400040E0842FDF91CF910895CF92DF92EF920E
:100F5000FF920F931F93CF93DF93EC0188819981C8
:100F6000DC01ED91FC910480F581E02D0995892B40
:100F700009F444C00E8D88819981DC01ED91FC91CA
:100F80000680F781E02D011107C009958A878E3709
:100F900029F71CA28E8D2FC00995FE01E00FF11DCF
:100FA00082878E8D823049F0893059F0813019F571
:100FB0009B859F3F01F11E8E1AC09C859630D9F00B
:100FC00003C08B898F3E11F01E8E10C0CE010E948F
:100FD0008D071E8E882351F0CE010E9436071CA17A
:100FE000112369F1888D81112AC026C081E088A370
:100FF0001BA21AA220C08F5F8E8FB0CF8DA1882335
:10100000E9F00E94F102CA80DB80EC80FD80DC0107
:10101000CB018C199D09AE09BF09CE80DF80E88421
:10102000F9848C159D05AE05BF0540F01E8E18A2F3
:101030001BA21AA281E08CA31DA201C01CA1812FBA
:10104000DF91CF911F910F91FF90EF90DF90CF90A4
:101050000895CF93DF93EC01888D882339F08DA11B
:10106000882351F0CE010E94A507F9CF6AE070E015
:1010700080E090E00E94220388819981DC01ED915B
:10108000FC910280F381E02D4AE050E0BE016C5EED
:101090007F4F09950E94F1026A837B838C839D8335
:1010A00081E0988D911101C080E08DA3DF91CF91F7
:1010B0000895CF93DF93EC016F8B598F4A8FBC015A
:1010C0006C5E7F4F0E9426079B8F8C8FCE01DF9135
:1010D000CF910C94290840E050E00C945908CF932C
:1010E000DF93EC0181E08DA3CE010E94A507882348
:1010F000D9F381E098A1911101C080E0DF91CF91F7
:101100000895462F50E066E00C945908462F50E0B1
:1011100067E00C945908462F50E069E00E94590896
:1011200068EC70E080E090E00C9422036CE00C949A
:101130006B081F93CF93DF93EC01142F442319F016
:1011400081E0888F01C0188E798368838E819F81AA
:10115000A885B9858854944FAF4FBF4F8E839F8326
:10116000A887B987CE010E949608CE010E946F0819
:101170008E819F81A885B985885B9B40A109B109B3
:101180008E839F83A887B98768EC70E080E090E049
:101190000E9422031CA288A1843019F081E08127DB
:1011A00001C081E0DF91CF911F9108950895CF9202
:1011B000DF92EF92FF920F931F93CF93DF936C0117
:1011C0007A018B01C0E0D0E0CE15DF0581F0D801B7
:1011D0006D918D01D601ED91FC910190F081E02D92
:1011E000C6010995892B11F02196EECF7E01C7012A
:1011F000DF91CF911F910F91FF90EF90DF90CF90F3
:10120000089597FB072E16F4009407D077FD09D0B8
:101210000E94670907FC05D03EF4909581959F4F89
:101220000895709561957F4F0895A1E21A2EAA1B2B
:10123000BB1BFD010DC0AA1FBB1FEE1FFF1FA21786
:10124000B307E407F50720F0A21BB30BE40BF50B83
:10125000661F771F881F991F1A9469F7609570950C
:10126000809590959B01AC01BD01CF010895052E9D
:1012700097FB1EF400940E944E0957FD07D00E9470
:10128000150907FC03D04EF40C944E095095409577
:10129000309521953F4F4F4F5F4F08959095809522
:1012A000709561957F4F8F4F9F4F0895EE0FFF1FF1
:1012B0000590F491E02D09940E947B09A59F900D63
:1012C000B49F900DA49F800D911D11240895AA1B19
:1012D000BB1B51E107C0AA1FBB1FA617B70710F021
:1012E000A61BB70B881F991F5A95A9F78095909553
:1012F000BC01CD010895A29FB001B39FC001A39F7F
:10130000700D811D1124911DB29F700D811D11243E
:10131000911D08950F931F93CF93DF938230910512
:1013200010F482E090E0E0918001F091810120E0F2
:1013300030E0A0E0B0E0309719F1408151810281A6
:10134000138148175907C8F08417950769F4109757
:1013500031F012960C93129713961C9327C00093AA
:1013600080011093810122C02115310519F0421727
:10137000530718F49A01BD01EF01DF01F801DBCF3B
:1013800021153105F9F0281B390B2430310580F483
:101390008A819B816115710521F0FB019383828312
:1013A00004C09093810180938001FE01329644C075
:1013B000FE01E20FF31F819391932250310939838B
:1013C00028833AC020917E0130917F01232B41F484
:1013D000209102013091030130937F0120937E011F
:1013E00020910001309101012115310541F42DB703
:1013F0003EB74091040150910501241B350BE0914B
:101400007E01F0917F01E217F307A0F42E1B3F0B42
:101410002817390778F0AC014E5F5F4F2417350766
:1014200048F04E0F5F1F50937F0140937E018193E0
:10143000919302C0E0E0F0E0CF01DF91CF911F91E6
:101440000F910895CF93DF93009709F481C0FC01B9
:10145000329713821282A0918001B091810110977E
:1014600081F420813181820F931F20917E01309180
:101470007F012817390751F5F0937F01E0937E0132
:1014800067C0ED0120E030E0CE17DF0740F44A816D
:101490005B819E0141155105F1F0EA01F5CFD3833F
:1014A000C28340815181840F951FC817D90759F411
:1014B00088819981840F951F0296918380838A8108
:1014C0009B81938382832115310529F4F093810157
:1014D000E09380013DC0E901FB83EA834991599182
:1014E000C40FD51FEC17FD0761F480819181840F33
:1014F000951F0296E90199838883828193819B835A
:101500008A83E0E0F0E012968D919C91139700970A
:1015100019F0FD01DC01F7CF8D919C9111979D0190
:101520002E5F3F4F820F931F20917E0130917F01EC
:101530002817390769F4309729F410928101109225
:10154000800102C013821282B0937F01A0937E01BA
:10155000DF91CF91089510E0C8E7D0E004C0FE010C
:101560000E9456092196C937D107C9F7F894FFCFD1
:101570000000820120007EFF06000100000000EF55
:1015800000000000E104D7084A05C0043205310517
:00000001FF
