S0110000416C69656E43616B652E73726563B6
S11300000C9463000C948B000C948B000C948B0068
S11300100C948B000C948B000C948B000C948B0030
S11300200C948B000C948B000C948B000C948B0020
S11300300C948B000C948B000C948B000C948B0010
S11300400C942E010C948B000C948B000C948B005C
S11300500C948B000C948B000C948B000C948B00F0
S11300600C948B000C948B0000000008000201002B
S1130070000304070000000000000000010204085F
S113008010204080010204081020010204081020FE
S1130090040404040404040402020202020203032A
S11300A003030303000000002300260029000000CE
S11300B00000250028002B00000000002400270079
S11300C02A00A600B40011241FBECFEFD8E0DEBF83
S11300D0CDBF21E0A0E0B1E001C01D92AF30B20776
S11300E0E1F711E0A0E0B1E0EAE1F6E002C005903A
S11300F00D92A030B107D9F710E0C2E6D0E004C0F9
S11301002197FE010E94FA02C136D107C9F70E9465
S11301101F010C9400030C94000084E091E00C9403
S1130120C50080E091E00E94EE001816190654F410
S113013084E091E00E94C00060ED77E080E090E010
S11301400E949D0184E091E00C94C50065E070E09C
S113015084E091E00E94B80048E050E069E070E07B
S113016080E091E00C94CA0084E091E00C94BF001C
S1130170FC01862F6083718361E00C943D02089535
S113018061E0FC0180810C94790260E0FC018081D3
S11301900C947902CF93DF93EC01862F68837983E3
S11301A05B834A8360E00E943D0261E08A81DF91C3
S11301B0CF910C943D02CF93DF93EC0161E08A81EF
S11301C00E9479026AE070E080E090E00E949D0164
S11301D060E08881DF91CF910C9479020F931F9393
S11301E0CF93DF938C010E94DB00F80180810E9491
S11301F0A8020197E1F4C0E0D0E0F80180810E94F8
S1130200A802892B41F0219661E070E080E090E043
S11302100E949D01F2CF22E22C9FC0012D9F900DE0
S1130220112460ED77E00E94D202CB0102C08FEF6F
S11302309FEFDF91CF911F910F91089508950E9430
S1130240D9010E941E010E948D00C0E0D0E00E94EE
S113025091002097E1F30E940000F9CF1F920F92C2
S11302600FB60F9211242F933F938F939F93AF93C5
S1130270BF938091070190910801A0910901B09169
S11302800A013091060123E0230F2D3720F4019653
S1130290A11DB11D05C026E8230F0296A11DB11DA5
S11302A0209306018093070190930801A09309010C
S11302B0B0930A0180910B0190910C01A0910D0162
S11302C0B0910E010196A11DB11D80930B01909375
S11302D00C01A0930D01B0930E01BF91AF919F91BA
S11302E08F913F912F910F900FBE0F901F901895F3
S11302F03FB7F89480910B0190910C01A0910D01EE
S1130300B0910E0126B5A89B05C02F3F19F00196A8
S1130310A11DB11D3FBFBA2FA92F982F8827820F87
S1130320911DA11DB11DBC01CD0142E0660F771FD7
S1130330881F991F4A95D1F708958F929F92AF9283
S1130340BF92CF92DF92EF92FF926B017C010E94E9
S113035078014B015C01C114D104E104F10401F101
S11303600E94D1020E947801DC01CB01881999090D
S1130370AA09BB09883E9340A105B10560F321E0B9
S1130380C21AD108E108F10888EE880E83E0981EAD
S1130390A11CB11CC114D104E104F10419F7DBCF91
S11303A0FF90EF90DF90CF90BF90AF909F908F9091
S11303B00895789484B5826084BD84B5816084BDD9
S11303C085B5826085BD85B5816085BDEEE6F0E0CA
S11303D0808181608083E1E8F0E010828081826026
S11303E08083808181608083E0E8F0E080818160A7
S11303F08083E1EBF0E0808184608083E0EBF0E0D7
S1130400808181608083EAE7F0E08081846080837A
S11304108081826080838081816080838081806824
S113042080831092C1000895833081F028F48130D4
S113043099F08230A1F008958730A9F08830B9F09E
S11304408430D1F4809180008F7D03C0809180003E
S11304508F7780938000089584B58F7702C084B528
S11304608F7D84BD08958091B0008F7703C0809103
S1130470B0008F7D8093B0000895CF93DF9390E018
S1130480FC01E458FF4F2491FC01E057FF4F849195
S1130490882361F190E0880F991FFC01E854FF4F15
S11304A0C591D491FC01E255FF4FA591B49161111E
S11304B009C09FB7F8948881209582238883EC91A2
S11304C02E230BC0623061F49FB7F8948881322FD9
S11304D0309583238883EC912E2B2C939FBF06C0E9
S11304E08FB7F894E8812E2B28838FBFDF91CF91AB
S11304F008951F93CF93DF93282F30E0F901E85933
S1130500FF4F8491F901E458FF4FD491F901E0576A
S1130510FF4FC491CC23C1F0162F81110E94140205
S1130520EC2FF0E0EE0FFF1FE255FF4FA591B491C1
S11305309FB7F894111104C08C91D095D82302C0B0
S1130540EC91DE2BDC939FBFDF91CF911F91089537
S1130550CF93DF93282F30E0F901E859FF4F8491BE
S1130560F901E458FF4FD491F901E057FF4FC491CA
S1130570CC2391F081110E941402EC2FF0E0EE0FD5
S1130580FF1FEC55FF4FA591B491EC91ED2381E051
S113059090E021F480E002C080E090E0DF91CF9110
S11305A00895089597FB072E16F4009407D077FD5D
S11305B009D00E94E60207FC05D03EF4909581958F
S11305C09F4F0895709561957F4F0895AA1BBB1B9B
S11305D051E107C0AA1FBB1FA617B70710F0A61B3F
S11305E0B70B881F991F5A95A9F780959095BC0160
S11305F0CD010895EE0FFF1F0590F491E02D0994AD
S113060010E0C2E6D0E004C0FE010E94FA02219686
S10D0610C336D107C9F7F894FFCFF1
S9030000FC
